:020000040800F2
:1000000000000120B9080008350800083D08000874
:10001000450800084D0800085508000800000000C9
:100020000000000000000000000000005D08000863
:100030006B08000800000000790800088708000825
:100040000909000809090008090900080909000848
:100050000909000809090008090900080909000838
:100060000909000809090008090900080909000828
:100070000909000809090008090900080909000818
:100080000909000809090008090900080000000022
:100090000000000000000000000000000909000846
:1000A00009090008090900080909000809090008E8
:1000B00009090008090900080909000809090008D8
:1000C00009090008090900080909000809090008C8
:1000D00009090008090900080909000800000000D2
:1000E00009090008090900080909000800000000C2
:1000F00000000000000000000000000009090008E6
:1001000000000000090900080909000809090008A1
:1001100000000000000000000000000000000000DF
:100120000909000809090008090900080909000867
:1001300009090008000000000000000000000000A5
:100140000000000000000000000000000909000895
:100150000909000809090008090900080909000837
:10016000090900080909000800000000000000005B
:10017000000000000000000000000000000000007F
:100180000000000009090008000000000000000055
:040190000909000851
:1001940010B5054C237833B9044B13B10448AFF3BD
:1001A40000800123237010BD140000200000000013
:1001B400C821000808B5034B1BB103490348AFF33A
:1001C400008008BD0000000018000020C8210008BD
:1001D40053B94AB9002908BF00281CBF4FF0FF31AA
:1001E4004FF0FF3000F088B9ADF1080C6DE904CE92
:1001F40000F006F8DDF804E0DDE9022304B07047FE
:100204002DE9F047089D8E4604468846002B4AD1C6
:100214008A42174662D9B2FA82F64EB1C6F1200379
:1002240001FA06F820FA03F3B74043EA0808B44099
:100234004FEA174E1FFA87FCB8FBFEF1230C0EFBA6
:10024400118843EA084301FB0CF29A4209D9FB18CE
:1002540001F1FF3080F0EA809A4240F2E7800239EF
:100264003B449A1AA3B2B2FBFEF00EFB102243EAFF
:10027400024300FB0CFC9C4509D9FB1800F1FF323A
:1002840080F0D6809C4540F2D3803B44023840EA5B
:100294000140A3EB0C0300211DB1F3400022C5E98A
:1002A4000032BDE8F0878B4205D90DB1C5E90001E4
:1002B40000210846F5E7B3FA83F1002946D17345D6
:1002C40002D3824200F20581841A6EEB03020120FC
:1002D4009046002DE5D0C5E90048E2E7002A00F089
:1002E4009080B2FA82F6002E40F0A4808A1A030CA1
:1002F4004FEA174E80B2BCB20121B2FBFEFC0EFBEA
:100304001C2243EA024304FB0CF29A4207D9FB186D
:100314000CF1FF3802D29A4200F2E080C4469B1AE4
:10032400B3FBFEF20EFB123340EA034302FB04F478
:100334009C4207D9FB1802F1FF3002D29C4200F222
:10034400CA8002461B1B42EA0C40A5E7C1F1200605
:100354008B4022FA06F71F430EFA01F420FA06F343
:100364002EFA06FE4FEA1749234300FA01F81FFA52
:1003740087FCBEFBF9F01C0C09FB10EE44EA0E44AA
:1003840000FB0CFEA64502FA01F209D93C1900F162
:10039400FF3A80F09C80A64540F2998002383C44A4
:1003A400A4EB0E041FFA83FEB4FBF9F309FB134418
:1003B4004EEA044403FB0CFCA44508D93C1903F1A0
:1003C400FF3E80F08280A4457FD9023B3C4443EA4F
:1003D4000040A4EB0C04A0FB02EC64457346E14628
:1003E40062D35FD05DB1B8EB030264EB090404FA95
:1003F40006F622FA01F31E43CC40C5E9006400214D
:100404004FE7B1FBF2FC010C41EA0E4180B240EA35
:1004140001423B4638463C46B846BE462026B1FB20
:10042400F7F1A2EB080241EA0C4166E7014618E73E
:1004340010462CE7C6F120022EFA02F3B740B14071
:1004440020FA02F24FEA174E0A43B3FBFEF8BCB29D
:100454000EFB1833110C41EA034108FB04F9B040C8
:1004640089454FEA104380B23ED9791808F1FF3C20
:1004740001D289451FD8A1EB0901B1FBFEF909FBA3
:1004840004F80EFB191192B242EA0142424529D204
:10049400BA1809F1FF31C4D24245C2D2A9F102010E
:1004A4003A44BEE7F0459DD2BEEB02036CEB070C69
:1004B4000138E14696E7A7EB09094944A8F1020C83
:1004C400B1FBFEF909FB04F8DBE773467FE750460E
:1004D40066E70846FDE63B44023A33E7ACF1020C1A
:1004E4003B441CE749469CE7A1EB0901C446B1FB28
:1004F400FEF909FB04F8C4E7704700BF80B588B073
:1005040000AF07F10C0300221A605A609A60DA60A7
:100514001A610023BB60234B1B6B224A43F0010387
:100524001363204B1B6B03F00103BB60BB68002308
:100534007B601C4B1B6B1B4A43F002031363194B78
:100544001B6B03F002037B607B6800224FF4007195
:10055400154800F0D9FC0022C021144800F0D4FC56
:100564004FF40073FB6001233B6100237B61002394
:10057400BB6107F10C0319460B4800F041FBC02393
:10058400FB6001233B6100237B610023BB6107F116
:100594000C031946054800F033FB00BF2037BD4665
:1005A40080BD00BF00380240000002400004024049
:1005B40080B584B004AF00F0A7F900F021F8FFF78C
:1005C4009DFF00F08DF801F06FFC642000F00EFA3E
:1005D4004FF6A06001F0B8FD074B1F22029240F2D3
:1005E400FF7201925A6800921B68044A0A210A2089
:1005F40001F0EBFC00BFFDE70C000020E021000847
:1006040080B594B000AF07F12003302200211846D2
:1006140001F0ABFD07F10C0300221A605A609A60E6
:10062400DA601A610023BB60284B1B6C274A43F035
:1006340080531364254B1B6C03F08053BB60BB6871
:1006440000237B60224B1B6823F44043204A43F47D
:10065400004313601E4B1B6803F440437B607B68BC
:1006640002233B620123FB6210233B630223BB632F
:100674000023FB6308233B6440237B640223BB64A5
:100684000423FB6407F12003184600F057FC0346DB
:10069400002B01D000F01EF80F23FB6002233B6106
:1006A400A0237B614FF48053BB610023FB6107F1FE
:1006B4000C030021184600F0B9FE0346002B01D0BC
:1006C40000F008F800BF5037BD4680BD0038024036
:1006D4000070004080B400AF72B600BF00BFFDE7F9
:1006E40080B500AF184B194A1A60174B4FF4827249
:1006F4005A60154B4FF400429A60134B0022DA60A3
:10070400114B02221A61104B00225A610E4B4FF416
:1007140000729A610C4B0022DA610B4B00221A62C0
:10072400094B00225A62084B00229A62064B0A22A5
:10073400DA62054801F026F80346002B01D0FFF7E2
:10074400C9FF00BF80BD00BF300000200030014061
:1007540080B58AB000AF786007F1140300221A60F4
:100764005A609A60DA601A617B681B68194A93427E
:100774002BD100233B61184B5B6C174A43F4805325
:100784005364154B5B6C03F480533B613B6900235A
:10079400FB60114B1B6B104A43F0010313630E4BB8
:1007A4001B6B03F00103FB60FB68A0237B61022346
:1007B400BB610023FB6103233B6205237B6207F1DA
:1007C40014031946054800F01BFA00BF2837BD463C
:1007D40080BD00BF003001400038024000000240EC
:1007E40080B483B000AF00237B60104B5B6C0F4A76
:1007F40043F4804353640D4B5B6C03F480437B6090
:100804007B6800233B60094B1B6C084A43F0805310
:100814001364064B1B6C03F080533B603B6800BFC2
:100824000C37BD465DF8047B704700BF00380240BA
:1008340080B400AF00BFFDE780B400AF00BFFDE7A8
:1008440080B400AF00BFFDE780B400AF00BFFDE798
:1008540080B400AF00BFFDE780B400AF00BFBD4669
:100864005DF8047B704780B400AF00BFBD465DF8FF
:10087400047B704780B400AF00BFBD465DF8047BC5
:10088400704780B500AF00F091F800BF80BD000054
:1008940080B400AF064BD3F88830054A43F47003A4
:1008A400C2F8883000BFBD465DF8047B704700BFC6
:1008B40000ED00E0DFF834D0FFF7EAFF0C480D4903
:1008C4000D4A002302E0D458C4500433C4188C42A7
:1008D400F9D30A4A0A4C002301E013600432A2420D
:1008E400FBD301F04BFCFFF763FE704700000120CF
:1008F4000000002014000020F42F00081400002041
:100904008C000020FEE7000080B500AF0E4B1B6892
:100914000D4A43F4007313600B4B1B680A4A43F4FB
:1009240080631360084B1B68074A43F480731360A9
:10093400032000F031F90F2000F008F8FFF750FF12
:100944000023184680BD00BF003C024080B582B041
:1009540000AF7860124B1A68124B1B7819464FF49B
:100964007A73B3FBF1F3B2FBF3F3184600F03BF9EF
:100974000346002B01D001230EE07B680F2B0AD81D
:10098400002279684FF0FF3000F011F9064A7B68C5
:100994001360002300E0012318460837BD4680BDDC
:1009A40000000020080000200400002080B400AFF4
:1009B400064B1B781A46064B1B681344044A136003
:1009C40000BFBD465DF8047B704700BF08000020EF
:1009D4008800002080B400AF034B1B681846BD4656
:1009E4005DF8047B704700BF8800002080B584B0A8
:1009F40000AF7860FFF7EEFFB8607B68FB60FB68D0
:100A0400B3F1FF3F05D00A4B1B781A46FB68134429
:100A1400FB6000BFFFF7DEFF0246BB68D31AFA682B
:100A24009A42F7D800BF00BF1037BD4680BD00BF53
:100A34000800002080B485B000AF78607B6803F0C4
:100A44000703FB600C4BDB68BB60BA684FF6FF031F
:100A54001340BB60FB681A02BB68134343F0BF63D7
:100A640043F40033BB60044ABB68D36000BF14374F
:100A7400BD465DF8047B704700ED00E080B400AF34
:100A8400044BDB681B0A03F007031846BD465DF8F8
:100A9400047B704700ED00E080B483B000AF0346F0
:100AA4003960FB7197F90730002B0ADB3B68DAB237
:100AB4000C4997F907301201D2B20B4483F8002392
:100AC4000AE03B68DAB20849FB7903F00F03043B00
:100AD4001201D2B20B441A7600BF0C37BD465DF842
:100AE400047B704700E100E000ED00E080B489B0D1
:100AF40000AFF860B9607A60FB6803F00703FB613C
:100B0400FB69C3F10703042B28BF0423BB61FB6902
:100B14000433062B02D9FB69033B00E000237B610D
:100B24004FF0FF32BB6902FA03F3DA43BB681A40A1
:100B34007B699A404FF0FF317B6901FA03F3D94393
:100B44007B680B40134318462437BD465DF8047B8D
:100B54007047000080B582B000AF78607B68013BCD
:100B6400B3F1807F01D301230FE00A4A7B68013B84
:100B740053600F214FF0FF30FFF78EFF054B00222B
:100B84009A60044B07221A60002318460837BD46B2
:100B940080BD00BF10E000E080B582B000AF786097
:100BA4007868FFF747FF00BF0837BD4680BD80B5B2
:100BB40086B000AF0346B9607A60FB7300237B61A3
:100BC400FFF75CFF78617A68B9687869FFF78EFF90
:100BD400024697F90F3011461846FFF75DFF00BF34
:100BE4001837BD4680BD80B582B000AF78607868A4
:100BF400FFF7B0FF034618460837BD4680BD000026
:100C040080B489B000AF7860396000237B61002331
:100C14003B610023BB610023FB6159E10122FB69B5
:100C240002FA03F37B613B681B687A6913403B61FA
:100C34003A697B699A4240F048813B685B6803F0FB
:100C44000303012B05D03B685B6803F00303022B0D
:100C540030D17B689B68BB61FB695B00032202FAAD
:100C640003F3DB43BA691340BB613B68DA68FB6991
:100C74005B0002FA03F3BA691343BB617B68BA6988
:100C84009A607B685B68BB610122FB6902FA03F32B
:100C9400DB43BA691340BB613B685B681B0903F023
:100CA4000102FB6902FA03F3BA691343BB617B686F
:100CB400BA695A603B685B6803F00303032B17D0DF
:100CC4007B68DB68BB61FB695B00032202FA03F308
:100CD400DB43BA691340BB613B689A68FB695B00FC
:100CE40002FA03F3BA691343BB617B68BA69DA6039
:100CF4003B685B6803F00303022B23D1FB69DA082A
:100D04007B68083253F82230BB61FB6903F00703A8
:100D14009B000F2202FA03F3DB43BA691340BB6161
:100D24003B681A69FB6903F007039B0002FA03F3AB
:100D3400BA691343BB61FB69DA087B680832B96995
:100D440043F822107B681B68BB61FB695B000322CC
:100D540002FA03F3DB43BA691340BB613B685B6887
:100D640003F00302FB695B0002FA03F3BA6913435D
:100D7400BB617B68BA691A603B685B6803F4403303
:100D8400002B00F0A2800023FB60574B5B6C564A9B
:100D940043F480435364544B5B6C03F48043FB6023
:100DA400FB68524AFB699B08023352F82330BB614B
:100DB400FB6903F003039B000F2202FA03F3DB43F6
:100DC400BA691340BB617B68494A934219D07B6876
:100DD400484A934213D07B68474A93420DD07B68BC
:100DE400464A934207D07B68454A934201D1042383
:100DF40008E0072306E0032304E0022302E00123C2
:100E040000E00023FA6902F0030292009340BA69F9
:100E14001343BB613549FB699B080233BA6941F846
:100E24002320384B9B68BB613B69DB43BA691340A1
:100E3400BB613B685B6803F48013002B03D0BA6981
:100E44003B691343BB612F4ABB6993602D4BDB683D
:100E5400BB613B69DB43BA691340BB613B685B68B8
:100E640003F40013002B03D0BA693B691343BB613D
:100E7400244ABB69D360234B5B68BB613B69DB439A
:100E8400BA691340BB613B685B6803F40033002B11
:100E940003D0BA693B691343BB611A4ABB69536007
:100EA400184B1B68BB613B69DB43BA691340BB61E8
:100EB4003B685B6803F48033002B03D0BA693B6959
:100EC4001343BB610F4ABB691360FB690133FB61C8
:100ED400FB690F2B7FF6A2AE00BF00BF2437BD46CF
:100EE4005DF8047B704700BF0038024000380140C1
:100EF400000002400004024000080240000C0240CE
:100F040000100240003C014080B483B000AF786020
:100F14000B467B8013467B707B78002B03D07A884A
:100F24007B689A6103E07B881A047B689A6100BF3E
:100F34000C37BD465DF8047B7047000080B586B071
:100F440000AF78607B68002B01D1012367E27B68E6
:100F54001B6803F00103002B75D0884B9B6803F0DA
:100F64000C03042B0CD0854B9B6803F00C03082B5B
:100F740012D1824B5B6803F48003B3F5800F0BD16D
:100F84007E4B1B6803F40033002B5BD07B685B68EB
:100F9400002B57D1012342E27B685B68B3F5803FA5
:100FA40006D1764B1B68754A43F4803313601DE009
:100FB4007B685B68B3F5A02F0CD1704B1B686F4A3C
:100FC40043F4802313606D4B1B686C4A43F48033F5
:100FD40013600BE0694B1B68684A23F48033136089
:100FE400664B1B68654A23F4802313607B685B6847
:100FF400002B13D0FFF7EEFC386108E0FFF7EAFCA2
:1010040002463B69D31A642B01D9032307E25B4BE5
:101014001B6803F40033002BF0D014E0FFF7DAFC74
:10102400386108E0FFF7D6FC02463B69D31A642B0B
:1010340001D90323F3E1514B1B6803F40033002B64
:10104400F0D100E000BF7B681B6803F00203002BB3
:1010540063D04A4B9B6803F00C03002B0BD0474B27
:101064009B6803F00C03082B1CD1444B5B6803F40E
:101074008003002B16D1414B1B6803F00203002BA5
:1010840005D07B68DB68012B01D00123C7E13B4B12
:101094001B6823F0F8027B681B69DB0037491343A4
:1010A4000B603AE07B68DB68002B20D0344B0122D4
:1010B4001A60FFF78FFC386108E0FFF78BFC0246EB
:1010C4003B69D31A022B01D90323A8E12B4B1B68DC
:1010D40003F00203002BF0D0284B1B6823F0F80226
:1010E4007B681B69DB00254913430B6015E0244B27
:1010F40000221A60FFF76EFC386108E0FFF76AFC13
:1011040002463B69D31A022B01D9032387E11B4B07
:101114001B6803F00203002BF0D17B681B6803F00B
:101124000803002B36D07B685B69002B16D0154B67
:1011340001221A60FFF74EFC386108E0FFF74AFC11
:1011440002463B69D31A022B01D9032367E10B4BF7
:101154005B6F03F00203002BF0D01BE0094B00226D
:101164001A60FFF737FC38610EE0FFF733FC0246E4
:101174003B69D31A022B07D9032350E100380240FC
:1011840000004742800E4742884B5B6F03F0020326
:10119400002BEAD17B681B6803F00403002B00F0EA
:1011A40097800023FB75814B1B6C03F08053002B4D
:1011B4000FD10023BB607D4B1B6C7C4A43F08053F2
:1011C40013647A4B1B6C03F08053BB60BB68012330
:1011D400FB75774B1B6803F48073002B18D1744B99
:1011E4001B68734A43F480731360FFF7F3FB3861A1
:1011F40008E0FFF7EFFB02463B69D31A022B01D943
:1012040003230CE16A4B1B6803F48073002BF0D0BA
:101214007B689B68012B06D1644B1B6F634A43F0C8
:10122400010313671CE07B689B68052B0CD15F4BA3
:101234001B6F5E4A43F0040313675C4B1B6F5B4AEE
:1012440043F0010313670BE0584B1B6F574A23F01D
:1012540001031367554B1B6F544A23F004031367B0
:101264007B689B68002B15D0FFF7B4FB38610AE05C
:10127400FFF7B0FB02463B69D31A41F2883293422E
:1012840001D90323CBE0494B1B6F03F00203002B6E
:10129400EED014E0FFF79EFB38610AE0FFF79AFBFB
:1012A40002463B69D31A41F28832934201D903239F
:1012B400B5E03E4B1B6F03F00203002BEED1FB7D28
:1012C400012B05D1394B1B6C384A23F0805313642E
:1012D4007B689B69002B00F0A180344B9B6803F072
:1012E4000C03082B5CD07B689B69022B41D1314BEA
:1012F40000221A60FFF76EFB386108E0FFF76AFB13
:1013040002463B69D31A022B01D9032387E0274BFA
:101314001B6803F00073002BF0D17B68DA697B68EB
:101324001B6A1A437B685B6A9B011A437B689B6A4E
:101334005B08013B1B041A437B68DB6A1B061B49E1
:1013440013434B601B4B01221A60FFF743FB3861C8
:1013540008E0FFF73FFB02463B69D31A022B01D991
:1013640003235CE0114B1B6803F00073002BF0D0E7
:1013740054E0104B00221A60FFF72CFB386108E0A0
:10138400FFF728FB02463B69D31A022B01D903233A
:1013940045E0064B1B6803F00073002BF0D13DE0E1
:1013A4007B689B69012B07D1012338E00038024098
:1013B40000700040600047421B4B5B68FB607B6829
:1013C4009B69012B28D0FB6803F480027B68DB69EE
:1013D4009A4221D1FB6803F03F027B681B6A9A4260
:1013E4001AD1FA6847F6C07313407A68526A9201B8
:1013F400934211D1FB6803F440327B689B6A5B081B
:10140400013B1B049A4207D1FB6803F070627B68BE
:10141400DB6A1B069A4201D0012300E00023184630
:101424001837BD4680BD00BF0038024080B584B087
:1014340000AF786039607B68002B01D10123CCE0D8
:10144400684B1B6803F007033A689A420CD9654B52
:101454003A68D2B21A70634B1B6803F007033A6808
:101464009A4201D00123B8E07B681B6803F00203B1
:10147400002B20D07B681B6803F00403002B05D0ED
:10148400594B9B68584A43F4E05393607B681B684C
:1014940003F00803002B05D0534B9B68524A43F4D6
:1014A40060439360504B9B6823F0F0027B689B6819
:1014B4004D4913438B607B681B6803F00103002BC9
:1014C40044D07B685B68012B07D1474B1B6803F44E
:1014D4000033002B19D101237FE07B685B68022B6A
:1014E40003D07B685B68032B07D13F4B1B6803F079
:1014F4000073002B09D101236FE03B4B1B6803F001
:101504000203002B01D1012367E0374B9B6823F0D2
:1015140003027B685B68344913438B60FFF75AFA14
:10152400F8600AE0FFF756FA0246FB68D31A41F264
:101534008832934201D903234FE02B4B9B6803F07D
:101544000C027B685B689B009A42EBD1254B1B68BD
:1015540003F007033A689A420CD2224B3A68D2B29B
:101564001A70204B1B6803F007033A689A4201D0B3
:10157400012332E07B681B6803F00403002B08D0CE
:10158400194B9B6823F4E0527B68DB6816491343CC
:101594008B607B681B6803F00803002B09D0124B97
:1015A4009B6823F460427B681B69DB000E4913438C
:1015B4008B6000F021F802460B4B9B681B0903F07B
:1015C4000F030A49CB5C22FA03F3094A1360094B5F
:1015D4001B681846FFF7BAF9002318461037BD46B2
:1015E40080BD00BF003C02400038024000220008D9
:1015F40000000020040000202DE9B04F90B000AF9F
:1016040000237B630023FB6300233B630023BB6352
:10161400594B9B6803F00C03082B0DD0082B00F2E8
:10162400A180002B02D0042B03D09BE0534BBB635F
:101634009BE0534BBB6398E04F4B5B6803F03F0365
:101644007B634D4B5B6803F48003002B28D04A4B2B
:101654005B689B0900223B627A623B6AC3F3080021
:101664000021474B03FB01F2002300FB03F3134467
:10167400434AA0FB0212FA620A46BA62FA6A1344A7
:10168400FB627B6B0022BB61FA61D7E90623D7E9D1
:101694000A01FEF79DFD02460B461346FB6353E029
:1016A400354B5B689B0900223B617A613B69C3F35C
:1016B400080A4FF0000B52465B464FF000004FF013
:1016C4000001590141EAD261500102460B46B2EBD6
:1016D4000A0863EB0B094FF000024FF000034FEAD6
:1016E400891343EA98634FEA8812B2EB080463EB68
:1016F40009054FF000024FF00003EB0043EA547376
:10170400E20014461D4614EB0A033B6045EB0B0351
:101714007B604FF000024FF00003D7E900452946F3
:101724008B02214643EA915321468A021046194608
:101734007B6B0022BB60FA60D7E90223FEF748FD09
:1017440002460B461346FB630B4B5B681B0C03F012
:10175400030301335B003B63FA6B3B6BB2FBF3F3B4
:10176400BB6302E0054BBB6300BFBB6B184640374D
:10177400BD46BDE8B08F00BF003802400024F4002D
:1017840040787D0180B582B000AF78607B68002B23
:1017940001D101237BE07B685B6A002B08D17B6865
:1017A4005B68B3F5827F09D07B680022DA6105E0CB
:1017B4007B6800221A617B6800225A617B680022E0
:1017C4009A627B6893F85130DBB2002B06D17B68B8
:1017D400002283F850207868FEF7BAFF7B68022263
:1017E40083F851207B681B681A687B681B6822F0A9
:1017F40040021A607B685B6803F482727B689B68B2
:1018040003F404431A437B68DB6803F400631A435C
:101814007B681B6903F002031A437B685B6903F06E
:1018240001031A437B689B6903F400731A437B68C2
:10183400DB6903F038031A437B681B6A03F08003F7
:1018440042EA03017B689B6A03F400527B681B68CD
:101854000A431A607B689B691B0C03F004017B68D4
:101864005B6A03F010027B681B680A435A607B685A
:101874001B68DA697B681B6822F40062DA617B68A2
:1018840000225A657B68012283F851200023184600
:101894000837BD4680BD80B588B000AFF860B96038
:1018A4003B601346FB80FFF795F8F861FB887B8368
:1018B400FB6893F85130DBB2012B01D002232AE1FB
:1018C400BB68002B02D0FB88002B01D1012322E14D
:1018D400FB6893F85030012B01D102231BE1FB6814
:1018E400012283F85020FB68032283F85120FB680F
:1018F40000225A65FB68BA681A63FB68FA889A86FC
:10190400FB68FA88DA86FB6800229A63FB68002287
:101914009A87FB680022DA87FB6800225A64FB6816
:1019240000221A64FB689B68B3F5004F0FD1FB6873
:101934001B681A68FB681B6822F040021A60FB6887
:101944001B681A68FB681B6842F480421A60FB68D3
:101954001B681B6803F04003402B07D0FB681B681F
:101964001A68FB681B6842F040021A60FB68DB6877
:10197400B3F5006F52D1FB685B68002B02D07B8B00
:10198400012B45D1FB681B6B1A88FB681B68DA6066
:10199400FB681B6B9A1CFB681A63FB68DB8E9BB2AB
:1019A400013B9AB2FB68DA8632E0FB681B689B68ED
:1019B40003F00203022B12D1FB681B6B1A88FB682D
:1019C4001B68DA60FB681B6B9A1CFB681A63FB6874
:1019D400DB8E9BB2013B9AB2FB68DA8618E0FEF715
:1019E400F9FF0246FB69D31A3A689A4203D83B6866
:1019F400B3F1FF3F02D13B68002B09D1FB68012200
:101A040083F85120FB68002283F85020032382E0EE
:101A1400FB68DB8E9BB2002BC7D153E0FB685B688D
:101A2400002B02D07B8B012B47D1FB681A6BFB6820
:101A34001B680C3312781A70FB681B6B5A1CFB680A
:101A44001A63FB68DB8E9BB2013B9AB2FB68DA86B1
:101A540033E0FB681B689B6803F00203022B13D17D
:101A6400FB681A6BFB681B680C3312781A70FB68EE
:101A74001B6B5A1CFB681A63FB68DB8E9BB2013B31
:101A84009AB2FB68DA8618E0FEF7A4FF0246FB6907
:101A9400D31A3A689A4203D83B68B3F1FF3F02D1A4
:101AA4003B68002B09D1FB68012283F85120FB68B5
:101AB400002283F8502003232DE0FB68DB8E9BB2C9
:101AC400002BC6D1FA693968F86800F0B1F803460A
:101AD400002B02D0FB6820225A65FB689B68002B10
:101AE4000AD100237B61FB681B68DB687B61FB68B0
:101AF4001B689B687B617B69FB68012283F851202A
:101B0400FB68002283F85020FB685B6D002B01D03A
:101B1400012300E0002318462037BD4680BD0000A5
:101B240080B588B000AFF860B9603B601346FB71C4
:101B3400FEF750FF0246BB6A9B1A3A681344FB61E6
:101B4400FEF748FFB861394B1B685B011B0DFA694E
:101B540002FB03F37B6155E03B68B3F1FF3F51D0D7
:101B6400FEF738FF0246BB69D31AFA699A4202D9D2
:101B7400FB69002B3DD1FB681B685A68FB681B6836
:101B840022F0E0025A60FB685B68B3F5827F11D1F2
:101B9400FB689B68B3F5004F04D0FB689B68B3F502
:101BA400806F07D1FB681B681A68FB681B6822F00A
:101BB40040021A60FB689B6AB3F5005F0FD1FB68B3
:101BC4001B681A68FB681B6822F400521A60FB68E1
:101BD4001B681A68FB681B6842F400521A60FB68B1
:101BE400012283F85120FB68002283F8502003234C
:101BF40018E07B69002B02D10023FB6102E07B69C2
:101C0400013B7B61FB681B689A68BB681340BA6838
:101C14009A420CBF01230023DBB21A46FB799A4295
:101C24009AD1002318462037BD4680BD000000200D
:101C340080B588B002AFF860B9607A607B680093C1
:101C4400BB6801220221F868FFF76AFF0346002BF4
:101C540007D0FB685B6D43F02002FB685A650323E1
:101C640032E01B4B1B681B4AA2FB03235B0D4FF4A2
:101C74007A7202FB03F37B61FB685B68B3F5827FD6
:101C840012D17B680093BB6800228021F868FFF7BB
:101C940047FF0346002B16D0FB685B6D43F0200220
:101CA400FB685A6503230FE07B69002B0AD07B692C
:101CB400013B7B61FB681B689B6803F08003802BFE
:101CC400F2D000E000BF002318461837BD4680BD9F
:101CD40000000020819F5E1680B500AF00224021E5
:101CE4000248FFF711F900BF80BD00BF00040240A5
:101CF40080B500AF012240210248FFF705F900BF7B
:101D040080BD00BF0004024080B500AF00228021E6
:101D14000648FFF7F9F80520FEF768FE0122802146
:101D24000248FFF7F1F800BF80BD00BF0004024085
:101D340080B582B000AF0346FB7100224FF40071FE
:101D44000648FFF7E1F8F91D4FF0FF33012204487C
:101D5400FFF7A1FD00BF0837BD4680BD000002406B
:101D64003000002080B582B000AF78603960012275
:101D74004FF400710748FFF7C7F83B689AB24FF079
:101D8400FF3379680448FFF786FD00BF0837BD4676
:101D940080BD00BF000002403000002080B584B048
:101DA40000AF78607B685A1C7A601B78FB7334E060
:101DB4007B685A1C7A601B78FB72FB7A1846FFF723
:101DC400B7FF7B685A1C7A601B78BB72BB7A9BB2E4
:101DD40003F08003BB81BB7A03F07F03BB72BB7A41
:101DE400002B08D0BB7A19467868FFF7BBFFBB7A93
:101DF4007A6813447B60BB89002B0ED07B685A1C25
:101E04007A601B78BB81BB89FF2B02D14FF4FA7334
:101E1400BB81BB891846FEF7E9FDFB7B5A1EFA73AA
:101E2400002BC5D100BF00BF1037BD4680BD90B5A3
:101E340085B000AF0446084611461A462346FB7196
:101E44000346BB710B467B7113463B712A20FFF797
:101E54006FFF00233B73FB790133DBB27B730023F9
:101E6400BB737B790133DBB2FB7307F10C030421F1
:101E74001846FFF777FF2B20FFF75AFFBB79023391
:101E8400DBB27B733B790233DBB2FB7307F10C03E8
:101E940004211846FFF766FF2C20FFF749FF00BF17
:101EA4001437BD4690BD000080B500AFFFF714FFA6
:101EB400FFF72AFF0648FFF771FF0648FFF76EFF9A
:101EC4000548FFF76BFFFFF713FF00BF80BD00BF9E
:101ED4006C2F0008A82F0008B82F000882B090B516
:101EE40089B000AF7B630346FB800B46BB8013467F
:101EF400FB70FB88D8B2BB88D9B2FB88DAB297F8FA
:101F040034301344DBB2013BDCB2BB88DAB297F85D
:101F140035301344DBB2013BDBB22246FFF787FFC7
:101F24000023FB6143E0BA6BFB78203B97F8351044
:101F340001FB03F31946FB690B445B0013441B8844
:101F44007B610023BB6129E07A69BB6902FA03F370
:101F540003F40043002B0ED0BB8F1B0A9BB2DBB2F1
:101F64003B74BB8FDBB27B7407F11003022118466C
:101F7400FFF7F8FE0FE0B7F840301B0A9BB2DBB264
:101F84003B73B7F84030DBB27B7307F10C030221DB
:101F94001846FFF7E7FEBB690133BB6197F834309D
:101FA4001A46BB699342CFD3FB690133FB6197F8AF
:101FB40035301A46FB699342B5D300BF00BF2437BE
:101FC400BD46BDE8904002B0704782B080B586B08F
:101FD40004AF3A607B610346FB800B46BB80FFF78E
:101FE4007BFE2DE0FB883A7D13449F2B13DD0023F9
:101FF400FB807B7D1A46BB881344BB80BB887A7DFB
:1020040013447F2B21DC3B681B78202B03D13B68D6
:1020140001333B6014E03B681A78B988F8883B8C3C
:102024000293BB8B0193BB6900937B69FFF756FF57
:102034003B7D1A46FB881344FB803B6801333B60BD
:102044003B681B78002BCDD100E000BFFFF750FEAA
:1020540000BF0837BD46BDE8804002B070470000AD
:1020640090B585B000AF0446084611461A4623468B
:10207400FB800346BB800B467B8013463B80FB887A
:102084009F2B58D8BB887F2B55D8FA887B8813445C
:10209400A02B03DDFB88C3F1A0037B80BA883B88B7
:1020A4001344802B03DDBB88C3F180033B80FFF71F
:1020B40013FEFB88D8B2BB88D9B2FB88DAB27B881E
:1020C400DBB21344DBB2013BDCB2BB88DAB23B883F
:1020D400DBB21344DBB2013BDBB22246FFF7A7FEBF
:1020E4003B8C1B0A9BB2DBB23B733B8CDBB27B7336
:1020F40001224FF400711248FEF706FF3B88BB80B3
:1021040013E07B88FB800AE007F10C014FF0FF33FA
:1021140002220C48FFF7BFFBFB88013BFB80FB88D6
:10212400002BF1D1BB88013BBB80BB88002BE8D1DD
:10213400FFF7DEFD00E000BF1437BD4690BD00BFD1
:10214400000002403000002080B584B002AF034696
:10215400FB80FB8800938023A02200210020FFF74E
:102164007FFF00BF0837BD4680BD0244034693424B
:1021740000D1704703F8011BF9E7000070B50D4D5D
:102184000D4C641BA4100026A64209D10B4D0C4C27
:1021940000F018F8641BA4100026A64205D170BDF7
:1021A40055F8043B98470136EEE755F8043B984749
:1021B4000136F2E7EC2F0008EC2F0008EC2F0008A2
:1021C400F02F0008F8B500BFF8BC08BC9E46704765
:0C21D400F8B500BFF8BC08BC9E46704780
:1021E00048692049616D20416D65722066726F6D8E
:1021F00020414C4542454C20636F6D70616E790003
:1022000000000000000000000102030406070809A6
:1022100000000000000000000000000000000000BE
:1022200000000000000000000000000000000000AE
:10223000000000000000000C000C000C000C000C62
:10224000000C000C000C000C000C000C0000000C3A
:10225000000C0000000000000000001B001B001B21
:10226000001B001B00000000000000000000000038
:1022700000000000000000000000000000008019C5
:10228000801980198019C07FC07F80190033C07FFA
:10229000C07F003300330033003300000000000033
:1022A0000000001E003F807580650074003C001E29
:1022B00000078005806580658075003F001E000472
:1022C000000400000000007000D840D8C0D880D9B9
:1022D00000730006000C801BC036C066C046C006F6
:1022E00080030000000000000000001E003F0033DB
:1022F00000330033001E000CC03CC0668063806168
:102300008063C03E801C0000000000000000000C44
:10231000000C000C000C000C00000000000000008D
:1023200000000000000000000000000000000000AD
:10233000800000010003000600060004000C000CF1
:10234000000C000C000C000C00040006000600034A
:1023500000018000002000100018000C000C000498
:102360000006000600060006000600060004000C39
:10237000000C0018001000200000000C002D003F91
:10238000001E0033000000000000000000000000FC
:10239000000000000000000000000000000000003D
:1023A0000000000C000C000C000CC0FFC0FF000C73
:1023B000000C000C000C00000000000000000000F9
:1023C000000000000000000000000000000000000D
:1023D00000000000000000000000000C000C0004E1
:1023E00000040008000000000000000000000000E1
:1023F000000000000000001E001E000000000000A1
:1024000000000000000000000000000000000000CC
:1024100000000000000000000000000000000000BC
:102420000000000C000C0000000000000000000391
:10243000000300030006000600060006000C000C66
:10244000000C000C0018001800180000000000002C
:102450000000001E003F0033806180618061806D5C
:10246000806D8061806180610033003F001E00004C
:102470000000000000000006000E001E00360026CE
:10248000000600060006000600060006000600061C
:1024900000060000000000000000001E003F8073E6
:1024A00080618061800100030006000C001800308C
:1024B0000060807F807F0000000000000000001CA2
:1024C000003E006300630003000E000E0003800165
:1024D000800180618073003F001E0000000000004A
:1024E00000000006000E000E001E001E0016003642
:1024F00000360066807F807F000600060006000030
:10250000000000000000007F007F006000600060AD
:10251000006E007F80638001800180618073003FD6
:10252000001E0000000000000000001E003F80337D
:1025300080610060006E007F8073806180618061D7
:102540008033003F001E0000000000000000807F7C
:10255000807F80010003000300060006000C000CD1
:10256000000C00080018001800180000000000000F
:102570000000001E003F8063806180610021001E1A
:10258000003F8061806180618061003F001E00002B
:10259000000000000000001E003F007380618061A9
:1025A00080618073803F801D800180610073003FE7
:1025B000001E0000000000000000000000000000FD
:1025C0000000000C000C00000000000000000000F3
:1025D0000000000C000C00000000000000000000E3
:1025E0000000000000000000000C000C00000000D3
:1025F000000000000000000C000C000400040008B3
:10260000000000000000000080008003000E003881
:1026100000600038000E8003800000000000000011
:102620000000000000000000000000000000807FAB
:10263000807F00000000807F807F0000000000009D
:10264000000000000000000000000000000000008A
:1026500000400070001C000780010007001C007093
:102660000040000000000000000000000000001F0B
:10267000803FC071C060C000C00180030007000E31
:10268000000C000C0000000C000C0000000000001A
:102690000000001E003F803180718063806F806D7C
:1026A000806D806F806700600032003E001C00007B
:1026B000000000000000000E000E001B001B001BAD
:1026C000001B80318031803F803F8031C060C0601E
:1026D000C0600000000000000000007C007E00637D
:1026E000006300630063007E007E006380618061A0
:1026F0008063007F007E0000000000000000001EDC
:10270000003F803180610060006000600060006018
:10271000006080618031003F001E0000000000006A
:102720000000007C007F00638063806180618061C5
:1027300080618061806100630063007E007C000036
:10274000000000000000807F807F0060006000606B
:102750000060007F007F0060006000600060807F9C
:10276000807F0000000000000000807F807F00600C
:10277000006000600060007F007F0060006000601B
:102780000060006000600000000000000000001E0B
:10279000003F803180610060006000608063806382
:1027A000806180618031803F001E000000000000D9
:1027B0000000806180618061806180618061807FD4
:1027C000807F8061806180618061806180610000C4
:1027D000000000000000003F003F000C000C000C57
:1027E000000C000C000C000C000C000C000C003F56
:1027F000003F000000000000000080018001800117
:102800008001800180018001800180018061806100
:102810008073003F001E0000000000000000C06048
:102820008061006300660066006C0078007C0066D2
:102830000066006380618061C060000000000000ED
:1028400000000060006000600060006000600060E8
:1028500000600060006000600060807F807F00009A
:10286000000000000000C071C071C07BC07AC06A67
:10287000C06AC06EC064C060C060C060C060C0603C
:10288000C06000000000000000008071807180794D
:1028900080798079806D806D806D806580678067CC
:1028A0008067806380630000000000000000001E5D
:1028B000003F003380618061806180618061806160
:1028C000806180610033003F001E000000000000B6
:1028D0000000007E007F8063806180618061806392
:1028E000007F007E0060006000600060006000000B
:1028F000000000000000001E003F00338061806186
:102900008061806180618061806580670033803F85
:10291000401E0000000000000000007E007F806379
:10292000806180618063007F007E006600630063D9
:1029300080618061C0600000000000000000000EA7
:10294000001F8031803100300038001E00078003F6
:10295000806180618031003F001E000000000000A7
:102960000000C0FFC0FF000C000C000C000C000CAD
:10297000000C000C000C000C000C000C000C000003
:1029800000000000000080618061806180618061E2
:102990008061806180618061806180618073003FBF
:1029A000001E0000000000000000C060C060C060A9
:1029B000803180318031001B001B001B001B000E8A
:1029C000000E000E00040000000000000000C0C067
:1029D000C0C0C0C0C0C0C0C0C0CC804C804C805EF5
:1029E000805280528073806180610000000000008E
:1029F0000000C0C0806080610033003B001E000CFE
:102A0000000C001E001F003B80718061C0C00000F0
:102A1000000000000000C0C080618061003300330E
:102A2000001E001E000C000C000C000C000C000C22
:102A3000000C0000000000000000803F803F80018B
:102A4000000300030006000C000C00180018003002
:102A50000060807F807F000000000000000F000FFA
:102A6000000C000C000C000C000C000C000C000C06
:102A7000000C000C000C000C000C000C000F000FF0
:102A80000000001800180018000C000C000C000CCE
:102A90000006000600060006000300030003000015
:102AA00000000000001E001E0006000600060006D2
:102AB00000060006000600060006000600060006E6
:102AC00000060006001E001E0000000C000C001E88
:102AD00000120033003380618061000000000000BC
:102AE00000000000000000000000000000000000E6
:102AF00000000000000000000000000000000000D6
:102B0000000000000000000000000000E0FF0000E6
:102B1000000000380018000C000000000000000059
:102B200000000000000000000000000000000000A5
:102B30000000000000000000000000000000001F76
:102B4000803F80618001801F803F80618063807F43
:102B5000C03800000000000000000060006000605D
:102B60000060006E007F80738061806180618061A1
:102B70008073007F006E0000000000000000000075
:102B8000000000000000001E003F807380610060B4
:102B9000006080618073003F001E000000000000A4
:102BA00000008001800180018001801D803F8073D2
:102BB00080618061806180618073803F801D000042
:102BC0000000000000000000000000000000001EE7
:102BD000003F00738061807F807F00608071003FD4
:102BE000001E0000000000000000C007C00F000C25
:102BF000000C807F807F000C000C000C000C000C8F
:102C0000000C000C000C00000000000000000000A0
:102C100000000000801D803F8073806180618061C2
:102C200080618073803F801D80018063007F003E53
:102C300000000060006000600060006F807F8071B5
:102C4000806180618061806180618061806100005D
:102C50000000000000000006000600000000003E2A
:102C6000003E0006000600060006000600060006FC
:102C70000006000000000000000600060000000042
:102C8000003E003E000600060006000600060006A4
:102C90000006000600060046007E003C00000060C2
:102CA000006000600060806100630066006C007C72
:102CB0000076006300638061C060000000000000D7
:102CC0000000003E003E000600060006000600066A
:102CD00000060006000600060006000600060000CA
:102CE000000000000000000000000000000080DD87
:102CF000C0FFC0CEC0CCC0CCC0CCC0CCC0CCC0CC3F
:102D0000C0CC000000000000000000000000000037
:102D10000000006F807F80718061806180618061D0
:102D20008061806180610000000000000000000000
:102D3000000000000000001E003F80738061806181
:102D4000806180618073003F001E00000000000071
:102D50000000000000000000006E007F80738061B2
:102D60008061806180618073007F006E0060006020
:102D7000006000600000000000000000801D803F37
:102D8000807380618061806180618073803F801D7D
:102D9000800180018001800100000000000000002F
:102DA00000000067803F0039003000300030003004
:102DB0000030003000300000000000000000000083
:102DC000000000000000001E803F80610060007F66
:102DD000803F80018061007F001E00000000000035
:102DE00000000000000800180018007F007F001895
:102DF00000180018001800180018801F800F00002D
:102E000000000000000000000000000000008061E1
:102E10008061806180618061806180618063807F8A
:102E2000803D0000000000000000000000000000E5
:102E30000000C060803180318031001B001B001B0E
:102E4000000E000E00060000000000000000000060
:102E500000000000000080DD80DD80DD00550055B1
:102E600000550077007700220022000000000000DB
:102E7000000000000000000000008061003300330B
:102E8000001E000C000C001E0033003380610000A7
:102E90000000000000000000000000008061806170
:102EA000803100330033001B001B001B000E000E9E
:102EB000000E001C007C00700000000000000000FC
:102EC0000000C07FC07F800100030006000C0018D6
:102ED0000030C07FC07F000000000000800380073A
:102EE00000060006000600060006000E001C001C7E
:102EF000000E00060006000600060006800780039C
:102F00000006000600060006000600060006000691
:102F10000006000600060006000600060006000681
:102F2000000600060038003C000C000C000C000CF1
:102F3000000C000E00070007000E000C000C000C37
:102F4000000C000C003C00380000000000000000F5
:102F50000000000000008038807F00470000000073
:102F60000000000000000000000000000F0180963B
:102F70001180FFB103012C2DB203012C2DB30601EA
:102F80002C2D012C2DB40107C003A20284C101C560
:102F9000C2020A00C3028A2AC4028AEEC5010E20B8
:102FA000003601603A010500022A040000007F2B70
:102FB000040000007F00000004E010021C0712372C
:102FC00032292D29252B3900010310E110031D079B
:102FD000062E2C292D2E2E373F0000021013800ABA
:042FE00029806400E0
:082FE40020D2FF7F0100000074
:042FEC00B90100081F
:042FF000950100083F
:102FF4000024F40010000000010000000B12000087
:04300400102200088E
:04000005080008B92E
:00000001FF
