:020000040800F2
:10000000000001205D150008C5140008CD1400088B
:10001000D5140008DD140008E514000800000000F5
:10002000000000000000000000000000ED140008C7
:10003000FB1400080000000009150008171500084F
:10004000AD150008AD150008AD150008AD15000888
:10005000AD150008AD150008AD150008AD15000878
:10006000AD150008AD150008AD150008AD15000868
:10007000AD150008AD150008AD150008AD15000858
:10008000AD150008AD150008AD1500080000000012
:10009000000000000000000000000000AD15000896
:1000A000AD150008AD150008AD150008AD15000828
:1000B000AD150008AD150008AD150008AD15000818
:1000C000AD150008AD150008AD150008AD15000808
:1000D000AD150008AD150008AD15000800000000C2
:1000E000AD150008AD150008AD15000800000000B2
:1000F000000000000000000000000000AD15000836
:1001000000000000AD150008AD150008AD15000891
:1001100000000000000000000000000000000000DF
:10012000AD150008AD150008AD150008251500082F
:10013000AD150008000000000000000000000000F5
:10014000000000000000000000000000AD150008E5
:10015000AD150008AD150008AD150008AD15000877
:10016000AD150008AD1500080000000000000000FB
:10017000000000000000000000000000000000007F
:1001800000000000AD1500080000000000000000A5
:04019000AD150008A1
:1001940010B5054C237833B9044B13B10448AFF3BD
:1001A40000800123237010BD100000200000000017
:1001B400A033000808B5034B1BB103490348AFF350
:1001C400008008BD0000000014000020A0330008D7
:1001D40053B94AB9002908BF00281CBF4FF0FF31AA
:1001E4004FF0FF3000F088B9ADF1080C6DE904CE92
:1001F40000F006F8DDF804E0DDE9022304B07047FE
:100204002DE9F047089D8E4604468846002B4AD1C6
:100214008A42174662D9B2FA82F64EB1C6F1200379
:1002240001FA06F820FA03F3B74043EA0808B44099
:100234004FEA174E1FFA87FCB8FBFEF1230C0EFBA6
:10024400118843EA084301FB0CF29A4209D9FB18CE
:1002540001F1FF3080F0EA809A4240F2E7800239EF
:100264003B449A1AA3B2B2FBFEF00EFB102243EAFF
:10027400024300FB0CFC9C4509D9FB1800F1FF323A
:1002840080F0D6809C4540F2D3803B44023840EA5B
:100294000140A3EB0C0300211DB1F3400022C5E98A
:1002A4000032BDE8F0878B4205D90DB1C5E90001E4
:1002B40000210846F5E7B3FA83F1002946D17345D6
:1002C40002D3824200F20581841A6EEB03020120FC
:1002D4009046002DE5D0C5E90048E2E7002A00F089
:1002E4009080B2FA82F6002E40F0A4808A1A030CA1
:1002F4004FEA174E80B2BCB20121B2FBFEFC0EFBEA
:100304001C2243EA024304FB0CF29A4207D9FB186D
:100314000CF1FF3802D29A4200F2E080C4469B1AE4
:10032400B3FBFEF20EFB123340EA034302FB04F478
:100334009C4207D9FB1802F1FF3002D29C4200F222
:10034400CA8002461B1B42EA0C40A5E7C1F1200605
:100354008B4022FA06F71F430EFA01F420FA06F343
:100364002EFA06FE4FEA1749234300FA01F81FFA52
:1003740087FCBEFBF9F01C0C09FB10EE44EA0E44AA
:1003840000FB0CFEA64502FA01F209D93C1900F162
:10039400FF3A80F09C80A64540F2998002383C44A4
:1003A400A4EB0E041FFA83FEB4FBF9F309FB134418
:1003B4004EEA044403FB0CFCA44508D93C1903F1A0
:1003C400FF3E80F08280A4457FD9023B3C4443EA4F
:1003D4000040A4EB0C04A0FB02EC64457346E14628
:1003E40062D35FD05DB1B8EB030264EB090404FA95
:1003F40006F622FA01F31E43CC40C5E9006400214D
:100404004FE7B1FBF2FC010C41EA0E4180B240EA35
:1004140001423B4638463C46B846BE462026B1FB20
:10042400F7F1A2EB080241EA0C4166E7014618E73E
:1004340010462CE7C6F120022EFA02F3B740B14071
:1004440020FA02F24FEA174E0A43B3FBFEF8BCB29D
:100454000EFB1833110C41EA034108FB04F9B040C8
:1004640089454FEA104380B23ED9791808F1FF3C20
:1004740001D289451FD8A1EB0901B1FBFEF909FBA3
:1004840004F80EFB191192B242EA0142424529D204
:10049400BA1809F1FF31C4D24245C2D2A9F102010E
:1004A4003A44BEE7F0459DD2BEEB02036CEB070C69
:1004B4000138E14696E7A7EB09094944A8F1020C83
:1004C400B1FBFEF909FB04F8DBE773467FE750460E
:1004D40066E70846FDE63B44023A33E7ACF1020C1A
:1004E4003B441CE749469CE7A1EB0901C446B1FB28
:1004F400FEF909FB04F8C4E7704700BF80B483B079
:1005040000AF78600B4B1B680B4AA2FB03239B0CC8
:100514007A6802FB03F37B6000BF7B685A1E7A6033
:10052400002BFAD100BF00BF0C37BD465DF8047B39
:10053400704700BF0400002083DE1B4390B58DB0DC
:1005440002AFB96011461A460346FB730B46BB81E2
:100554001346FB80FB7B1E2B64D997F90F30002BCD
:1005640060DBBB681B78FB77BB6801331B78BB7708
:10057400BB6802331B787B77BB6803331B783B77FC
:10058400FB7B203BFA7F02FB03F30433BA6813447A
:10059400BB61BB7F9AB27B7F9CB2F988B889BB8F61
:1005A4000093234600F0FCFC00237B6235E000232B
:1005B4003B622BE03B7F3A6A03FB02F27B6ADB106F
:1005C40003F01F0313440133BA6913441B78FB750A
:1005D4007B6A03F00703012202FA03F3BB75FA7D79
:1005E400BB7D1340DBB2002B0DD03B6A9AB2BB89B2
:1005F400134498B27B6A9AB2FB8813449BB23A8F35
:10060400194600F067FC3B6A01333B62BB7F3A6AE0
:100614009A42CFDB7B6A01337B627B7F7A6A9A42A0
:10062400C5DB00E000BF2C37BD4690BD80B58AB065
:1006340002AFF860B96011461A460B46FB801346B8
:10064400BB80BB681B78FB77BB6801331B78BB7727
:100654002DE0FB681878B988FA88BB8D01933B8D2F
:1006640000930B46B968FFF769FFFB681B78203BD2
:10067400FA7F02FB03F30433BA681344BB61BB691A
:100684001B78FB75FB7D9A1CBB7F9A4207DAFB7DC6
:100694009AB2FB8813449BB20233FB8004E0BB7F15
:1006A4009AB2FB881344FB80FB680133FB60FB6850
:1006B4001B78002BCDD100BF00BF2037BD4680BDC5
:1006C40080B588B000AFF860084611461A46034664
:1006D4007B810B463B811346FB807A89FB8813445C
:1006E4009BB2013B7B833A893B8D13449BB2013B14
:1006F4003B837B8BB3F5A07F37D23B8BEF2B34D876
:100704003B8B7A8B3989788900F052F9FB883A8DD2
:1007140002FB03F35B007B610023FB610EE0FA68DC
:10072400FB6913444FF4FA71184600F025F9FB698C
:1007340003F5FA73FB610120FFF7E0FEFB6903F5A3
:10074400FA737A699A42EAD2FA697B699A420DD2BB
:10075400FA68FB69D0187B699AB2FB699BB2D31A19
:100764009BB2194600F008F900E000BF2037BD46EF
:1007740080BD80B58AB000AFF860084611461A46BD
:1007840003467B810B463B811346FB807A89FB88B9
:1007940013449BB2013BBB833A893B8E13449BB207
:1007A400013B7B83BB8BB3F5A07F62D27B8BEF2BAA
:1007B4005FD87B8BBA8B3989788900F0F9F80023EC
:1007C4007B6200237B844FE000233B8440E07B6A10
:1007D4005A1C7A62FA6813441B787B760023FB77F1
:1007E4002EE03B8CDA00FB7F1A44FB889A422BDA1A
:1007F4007A7EFB7F802141FA03F31340002B0ED055
:10080400BB8E1B0A9BB2DBB23B75BB8EDBB27B7526
:1008140007F114030221184600F0AEF80DE03B8FF7
:100824001B0A9BB2DBB23B743B8FDBB27B7407F1D8
:1008340010030221184600F09FF8FB7F0133FB7779
:10084400FB7F072BCDD900E000BF3B8C01333B84F9
:100854003A8CFB880733002B00DA0733DB109A420B
:10086400B5DB7B8C01337B847A8C3B8E9A42ABD391
:1008740000E000BF2837BD4680BD000080B582B0CF
:1008840000AF78607B68064A934205D101224FF499
:100894008061044801F026FD00BF0837BD4680BDD5
:1008A4002C0000200004024080B582B000AF034653
:1008B400FB7100BF084B1B689B6803F00203022B0B
:1008C400F8D1FB1D01221946034802F017FB00BFB3
:1008D4000837BD4680BD00BF2C00002080B582B023
:1008E40000AF78600B467B8000BF084B1B689B6899
:1008F40003F00203022BF8D17A8864237968034851
:1009040002F0B7F900BF0837BD4680BD2C000020B7
:1009140080B582B000AF0346FB7100220421084871
:1009240001F0E0FC00224FF48061054801F0DAFC9C
:10093400FB791846FFF7B8FF00BF0837BD4680BDF6
:100944000004024080B582B000AF0346FB7101226F
:100954000421084801F0C6FC00224FF480610548D8
:1009640001F0C0FCFB791846FFF79EFF00BF083773
:10097400BD4680BD0004024080B582B000AF7860FF
:100984000B467B8001220421084801F0ABFC0022C5
:100994004FF48061054801F0A5FC7B88194678680E
:1009A400FFF79CFF00BF0837BD4680BD000402402E
:1009B40090B585B000AF0446084611461A46234652
:1009C400FB800346BB800B467B8013463B80FB8841
:1009D4001B0A9BB2DBB23B73FB88DBB27B737B8865
:1009E4001B0A9BB2DBB2BB737B88DBB2FB732A208E
:1009F400FFF78EFF07F10C0304211846FFF7BCFF35
:100A0400BB881B0A9BB2DBB23B73BB88DBB27B7334
:100A14003B881B0A9BB2DBB2BB733B88DBB2FB7324
:100A24002B20FFF775FF07F10C0304211846FFF78D
:100A3400A3FF2C20FFF76CFF00BF1437BD4690BD09
:100A440080B500AF002202210D4801F04BFC0A20C2
:100A540000F01EFE00224FF48061094801F042FCC0
:100A64000A2000F015FE01220221054801F03AFC9B
:100A740001224FF48061024801F034FC00BF80BDC4
:100A84000004024080B500AF01220221024801F0B7
:100A940029FC00BF80BD00BF0004024080B500AF48
:100AA400FFF7F0FFFFF7CCFF0120FFF731FF0A202B
:100AB40000F0EEFDCB20FFF72BFF3920FFF742FFBC
:100AC4002C20FFF73FFF0020FFF73CFF3420FFF707
:100AD40039FF0220FFF736FFCF20FFF719FF002070
:100AE400FFF730FFC120FFF72DFF3020FFF72AFF6B
:100AF400E820FFF70DFF8520FFF724FF0020FFF714
:100B040021FF7820FFF71EFFEA20FFF701FF0020F6
:100B1400FFF718FF0020FFF715FFED20FFF7F8FEA1
:100B24006420FFF70FFF0320FFF70CFF1220FFF7ED
:100B340009FF8120FFF706FFF720FFF7E9FE2020D9
:100B4400FFF700FFC020FFF7E3FE2320FFF7FAFEC4
:100B5400C120FFF7DDFE1020FFF7F4FEC520FFF7EC
:100B6400D7FE3E20FFF7EEFE2820FFF7EBFEC7205E
:100B7400FFF7CEFE8620FFF7E5FE3620FFF7C8FE1E
:100B84004820FFF7DFFE3A20FFF7C2FE5520FFF7AB
:100B9400D9FEB120FFF7BCFE0020FFF7D3FE1820DA
:100BA400FFF7D0FEB620FFF7B3FE0820FFF7CAFE1A
:100BB4008220FFF7C7FE2720FFF7C4FEF220FFF7CD
:100BC400A7FE0020FFF7BEFE2620FFF7A1FE0120AE
:100BD400FFF7B8FEE020FFF79BFE0F20FFF7B2FE01
:100BE4003120FFF7AFFE2B20FFF7ACFE0C20FFF700
:100BF400A9FE0E20FFF7A6FE0820FFF7A3FE4E2055
:100C0400FFF7A0FEF120FFF79DFE3720FFF79AFEC5
:100C14000720FFF797FE1020FFF794FE0320FFF74D
:100C240091FE0E20FFF78EFE0920FFF78BFE0020B9
:100C3400FFF788FEE120FFF76BFE0020FFF782FE3E
:100C44000E20FFF77FFE1420FFF77CFE0320FFF742
:100C540079FE1120FFF776FE0720FFF773FE31209F
:100C6400FFF770FEC120FFF76DFE4820FFF76AFE14
:100C74000820FFF767FE0F20FFF764FE0C20FFF744
:100C840061FE3120FFF75EFE3620FFF75BFE0F208A
:100C9400FFF758FE1120FFF73BFE642000F0F8FC3C
:100CA4002920FFF735FE002000F002F800BF80BDC8
:100CB40080B582B000AF0346FB713620FFF728FEF3
:100CC400012000F0E5FCFB79032B37D801A252F890
:100CD40023F000BFE90C0008FF0C0008150D000804
:100CE4002B0D00084820FFF72DFE174BF0221A8029
:100CF400164B4FF4A0721A8021E02820FFF722FE41
:100D0400114B4FF4A0721A80104BF0221A8016E097
:100D14008820FFF717FE0C4BF0221A800B4B4FF480
:100D2400A0721A800BE0E820FFF70CFE064B4FF48C
:100D3400A0721A80054BF0221A8000E000BF00BFA9
:100D44000837BD4680BD00BF02000020000000201F
:100D54002DE9F0438DB000AF03463960FB806B464C
:100D64001E460023FB623B685B00B3F5FA7F02D2A8
:100D74003B68FB6202E04FF4FA73FB620122042138
:100D84003F4801F0AFFA00224FF480613C4801F083
:100D9400A9FAFB881B0A9BB287F82330F96A0B4631
:100DA400013BFB610023884699464FF000024FF057
:100DB40000034FEAC90343EA58734FEAC802002309
:100DC4000C461D464FF000024FF00003EB0043EACF
:100DD4005473E200CB1DDB08DB00ADEB030D6B4667
:100DE4000033BB610023BB620EE0BA69BB6A1344E3
:100DF40097F823201A70BB6A0133FA88D1B2BA6912
:100E0400D154BB6A0233BB62BA6AFB6A9A42ECD31E
:100E14003B685B007B617A69FB6AB2FBF3F33B617D
:100E24007B69FA6AB3FBF2F2F96A01FB02F29B1ADC
:100E3400FB603B69002B10D000237B6209E0FB6A56
:100E44009AB20A23B9690F4801F013FF7B6A013390
:100E54007B627A6A3B699A42F1D3FB689AB20A23AD
:100E6400B969084801F005FF01224FF48061044884
:100E740001F038FAB54600BF3437BD46BDE8F0830B
:100E8400000402402C00002080B582B000AF03466D
:100E9400FB800E4B1B889AB20D4B1B889BB2002122
:100EA4000020FFF785FD094B1B889BB21A46084BAF
:100EB4001B889BB202FB03F31A46FB8811461846B3
:100EC400FFF746FF00BF0837BD4680BD0200002083
:100ED4000000002080B586B000AF0346FB800B46BF
:100EE400BB8013467B802C4B1B889BB2FA889A42AA
:100EF4004DD22A4B1B889BB2BA889A4247D2FB88B0
:100F04001B0A9BB2DBB23B75FB88DBB27B75FB88AB
:100F140001331B12DBB2BB75FB88DBB20133DBB2DE
:100F2400FB75BB881B0A9BB2DBB23B74BB88DBB28C
:100F34007B74BB8801331B12DBB2BB74BB88DBB28E
:100F44000133DBB2FB747B881B0A9BB2DBB23B73BD
:100F54007B88DBB27B732A20FFF7DAFC07F11403EA
:100F640004211846FFF708FD2B20FFF7D1FC07F1F9
:100F7400100304211846FFF7FFFC2C20FFF7C8FCE0
:100F840007F10C0302211846FFF7F6FC00E000BF4E
:100F94001837BD4680BD00BF0200002000000020BD
:100FA40090B583B000AF0446084611461A4623465E
:100FB400FB800346BB800B467B8013463B80244B5F
:100FC4001B889BB2FA889A423DD2224B1B889BB263
:100FD400BA889A4237D2FA887B8813441C4A12880A
:100FE40092B2934205DD1A4B1B889AB2FB88D31A3E
:100FF4007B80BA883B881344164A128892B2934283
:1010040005DD144B1B889AB2BB88D31A3B80FA883F
:101014007B8813449BB2013B9CB2BA883B8813443F
:101024009BB2013B9BB2B988F8882246FFF7C0FC0B
:101034003B887A8802FB03F31A463B8B1146184619
:10104400FFF786FE00E000BF0C37BD4690BD00BF31
:10105400020000200000002080B500AF00F0A6FAD6
:1010640000F08CF800F040F900F01EF900F0E6F80A
:10107400FFF714FD4FF47A7000F00AFB00F002F859
:1010840000BFFDE780B584B004AF0020FFF7FCFE8D
:10109400002301934FF4784300930A230A222D4935
:1010A4002D48FFF7C3FA1423009314230A22D221F4
:1010B4002A48FFF705FB3C2300931E233222142108
:1010C4002748FFF7FDFA002301934FF6FF730093BF
:1010D4004623462223492448FFF7A8FA3C230093D9
:1010E4001E2332228C212148FFF7EAFA00230193C0
:1010F4004FF6FF7300934623BE221A491A48FFF79E
:1011040095FA002301934FF6FF7300934FF4827313
:101114004B2210491648FFF789FA002301934FF632
:10112400FF7300934FF48C7364220E491148FFF748
:101134007DFA4FF6A0630293002301933C230093AE
:101144003223B4225F210C48FFF713FB00BFBD46D6
:1011540080BD00BFDC330008B8330008844E0008AB
:10116400B45F0008403D0008C0330008A4510008E3
:10117400C8330008D4330008C46D000880B594B0A7
:1011840000AF07F1200330220021184602F0DAF8FC
:1011940007F10C0300221A605A609A60DA601A613F
:1011A4000023BB60234B1B6C224A43F0805313641F
:1011B400204B1B6C03F08053BB60BB6800237B6037
:1011C4001D4B1B6823F440431B4A43F40043136044
:1011D400194B1B6803F440437B607B6802233B622A
:1011E4000123FB6210233B630023BB6307F120034D
:1011F400184601F091F80346002B01D000F0B8F82E
:101204000F23FB6000233B6100237B610023BB6150
:101214000023FB6107F10C030021184601F0F4FAE6
:101224000346002B01D000F0A3F800BF5037BD46A1
:1012340080BD00BF003802400070004080B500AFA0
:10124400174B184A1A60164B4FF482725A60144BAB
:1012540000229A60124B0022DA60114B00221A61BC
:101264000F4B00225A610E4B4FF400729A610C4BE3
:101274001822DA610A4B00221A62094B00225A62D0
:10128400074B00229A62064B0A22DA62044801F0F4
:1012940067FC0346002B01D000F06AF800BF80BD54
:1012A4002C0000200030014080B582B000AF002344
:1012B4007B600C4B1B6B0B4A43F480031363094B99
:1012C4001B6B03F480037B607B68002200213B20BE
:1012D40000F0DDFA3B2000F0F6FA00BF0837BD4607
:1012E40080BD00BF0038024080B588B000AF07F170
:1012F4000C0300221A605A609A60DA601A610023B3
:10130400BB60194B1B6B184A43F001031363164B64
:101314001B6B03F00103BB60BB6800237B60124BB3
:101324001B6B114A43F0020313630F4B1B6B03F057
:1013340002037B607B68002240F206410B4800F008
:10134400D1FF40F20643FB6001233B6100237B6134
:101354000023BB6107F10C031946044800F03EFE6C
:1013640000BF2037BD4680BD003802400004024063
:1013740080B400AF72B600BF00BFFDE780B483B095
:1013840000AF00237B60104B5B6C0F4A43F4804337
:1013940053640D4B5B6C03F480437B607B680023D8
:1013A4003B60094B1B6C084A43F080531364064BA3
:1013B4001B6C03F080533B603B6800BF0C37BD4699
:1013C4005DF8047B704700BF0038024080B58AB0E6
:1013D40000AF786007F1140300221A605A609A6023
:1013E400DA601A617B681B68304A934259D1002342
:1013F4003B612F4B5B6C2E4A43F4805353642C4B5C
:101404005B6C03F480533B613B690023FB60284B16
:101414001B6B274A43F001031363254B1B6B03F03B
:101424000103FB60FB68E0237B610223BB610023B3
:10143400FB6103233B6205237B6207F11403194616
:101444001C4800F0CBFD1C4B1C4A1A601A4B4FF091
:10145400C0625A60184B40229A60174B0022DA602F
:10146400154B4FF480621A61134B00225A61124BE0
:1014740000229A61104B0022DA610F4B00221A629B
:101484000D4B00225A620C4800F038FA0346002B38
:1014940001D0FFF76DFF7B68074A9A64064A7B68B0
:1014A400936300BF2837BD4680BD00BF00300140B4
:1014B40000380240000002408400002058640240CA
:1014C40080B400AF00BFFDE780B400AF00BFFDE70C
:1014D40080B400AF00BFFDE780B400AF00BFFDE7FC
:1014E40080B400AF00BFFDE780B400AF00BFBD46CD
:1014F4005DF8047B704780B400AF00BFBD465DF863
:10150400047B704780B400AF00BFBD465DF8047B28
:10151400704780B500AF00F09BF800BF80BD0000AD
:1015240080B500AF024800F0EFFA00BF80BD00BFF5
:101534008400002080B400AF064BD3F88830054AFD
:1015440043F47003C2F8883000BFBD465DF8047BE5
:10155400704700BF00ED00E0DFF834D0FFF7EAFF8A
:101564000C480D490D4A002302E0D458C4500433FA
:10157400C4188C42F9D30A4A0A4C002301E01360D0
:101584000432A242FBD301F0E5FEFFF765FD70478C
:10159400000001200000002010000020906F0008CF
:1015A40010000020E8000020FEE7000080B500AF36
:1015B4000E4B1B680D4A43F4007313600B4B1B68FE
:1015C4000A4A43F480631360084B1B68074A43F4D8
:1015D40080731360032000F04FF90F2000F008F827
:1015E400FFF7CCFE0023184680BD00BF003C02403C
:1015F40080B582B000AF7860124B1A68124B1B782A
:1016040019464FF47A73B3FBF1F3B2FBF3F31846C4
:1016140000F067F90346002B01D001230EE07B683C
:101624000F2B0AD8002279684FF0FF3000F02FF911
:10163400064A7B681360002300E00123184608373C
:10164400BD4680BD040000200C00002008000020DE
:1016540080B400AF064B1B781A46064B1B68134434
:10166400044A136000BFBD465DF8047B704700BFA9
:101674000C000020E400002080B400AF034B1B6882
:101684001846BD465DF8047B704700BFE4000020A7
:1016940080B584B000AF7860FFF7EEFFB8607B6878
:1016A400FB60FB68B3F1FF3F05D00A4B1B781A4679
:1016B400FB681344FB6000BFFFF7DEFF0246BB6814
:1016C400D31AFA689A42F7D800BF00BF1037BD4654
:1016D40080BD00BF0C00002080B485B000AF7860EE
:1016E4007B6803F00703FB600C4BDB68BB60BA68E4
:1016F4004FF6FF031340BB60FB681A02BB68134339
:1017040043F0BF6343F40033BB60044ABB68D36057
:1017140000BF1437BD465DF8047B704700ED00E060
:1017240080B400AF044BDB681B0A03F007031846C0
:10173400BD465DF8047B704700ED00E080B483B0E3
:1017440000AF0346FB7197F90730002B0BDBFB79E5
:1017540003F01F02074997F907305B09012000FADB
:1017640002F241F8232000BF0C37BD465DF8047B2C
:10177400704700BF00E100E080B483B000AF0346CF
:101784003960FB7197F90730002B0ADB3B68DAB24A
:101794000C4997F907301201D2B20B4483F80023A5
:1017A4000AE03B68DAB20849FB7903F00F03043B13
:1017B4001201D2B20B441A7600BF0C37BD465DF855
:1017C400047B704700E100E000ED00E080B489B0E4
:1017D40000AFF860B9607A60FB6803F00703FB614F
:1017E400FB69C3F10703042B28BF0423BB61FB6916
:1017F4000433062B02D9FB69033B00E000237B6121
:101804004FF0FF32BB6902FA03F3DA43BB681A40B4
:101814007B699A404FF0FF317B6901FA03F3D943A6
:101824007B680B40134318462437BD465DF8047BA0
:101834007047000080B582B000AF78607B68013BE0
:10184400B3F1807F01D301230FE00A4A7B68013B97
:1018540053600F214FF0FF30FFF78EFF054B00223E
:101864009A60044B07221A60002318460837BD46C5
:1018740080BD00BF10E000E080B582B000AF7860AA
:101884007868FFF729FF00BF0837BD4680BD80B5E3
:1018940086B000AF0346B9607A60FB7300237B61B6
:1018A400FFF73EFF78617A68B9687869FFF78EFFC1
:1018B400024697F90F3011461846FFF75DFF00BF47
:1018C4001837BD4680BD80B582B000AF0346FB71BA
:1018D40097F907301846FFF731FF00BF0837BD46B8
:1018E40080BD80B582B000AF78607868FFF7A2FF52
:1018F400034618460837BD4680BD000080B586B053
:1019040000AF786000237B61FFF7B6FE38617B6827
:10191400002B01D1012399E07B68022283F8352052
:101924007B68002283F834207B681B681A687B6814
:101934001B6822F001021A600FE0FFF79DFE0246C9
:101944003B69D31A052B08D97B6820225A657B682A
:10195400032283F83520032378E07B681B681B6827
:1019640003F00103002BE8D17B681B681B687B61D3
:101974007A69384B13407B617B685A687B689B6843
:101984001A437B68DB681A437B681B691A437B68CC
:101994005B691A437B689B691A437B68DB691A435A
:1019A4007B681B6A13437A6913437B617B685B6AB8
:1019B400042B07D17B68DA6A7B681B6B13437A6953
:1019C40013437B617B681B687A691A607B681B68B8
:1019D4005B697B617B6923F007037B617B685B6ADE
:1019E4007A6913437B617B685B6A042B17D17B683C
:1019F4009B6A7A6913437B617B68DB6A002B0ED098
:101A0400786800F06FFA0346002B08D07B68402208
:101A14005A657B68012283F83520012316E07B6830
:101A24001B687A695A61786800F026FA0346FB60FD
:101A34007B68DB6D3F229A40FB689A607B680022DA
:101A44005A657B68012283F835200023184618372D
:101A5400BD4680BD3F8010F080B586B000AFF86011
:101A6400B9607A603B600023FB75FB689B6D3B614A
:101A7400FB6893F83430012B01D1022340E0FB686A
:101A8400012283F83420FB6893F83530DBB2012B54
:101A94002FD1FB68022283F83520FB6800225A65A7
:101AA4003B687A68B968F86800F0B8F9FB68DB6DE0
:101AB4003F229A403B699A60FB681B681A68FB687E
:101AC4001B6842F016021A60FB681B6C002B07D0DF
:101AD400FB681B681A68FB681B6842F008021A60FE
:101AE400FB681B681A68FB681B6842F001021A60F5
:101AF40005E0FB68002283F834200223FB75FB7D9C
:101B040018461837BD4680BD80B586B000AF7860F2
:101B14000023BB608E4B1B688E4AA2FB03239B0AE7
:101B24007B617B689B6D3B613B691B68FB607B68E9
:101B3400DB6D08229A40FB681340002B1AD07B68A7
:101B44001B681B6803F00403002B13D07B681B681D
:101B54001A687B681B6822F004021A607B68DB6DDC
:101B640008229A403B699A607B685B6D43F00102EE
:101B74007B685A657B68DB6D01229A40FB681340E1
:101B8400002B12D07B681B685B6903F08003002B79
:101B94000BD07B68DB6D01229A403B699A607B68BD
:101BA4005B6D43F002027B685A657B68DB6D04223F
:101BB4009A40FB681340002B12D07B681B681B689B
:101BC40003F00203002B0BD07B68DB6D04229A40E8
:101BD4003B699A607B685B6D43F004027B685A65DD
:101BE4007B68DB6D10229A40FB681340002B43D0C6
:101BF4007B681B681B6803F00803002B3CD07B68E0
:101C0400DB6D10229A403B699A607B681B681B68F5
:101C140003F48023002B18D07B681B681B6803F433
:101C24000023002B08D17B681B6C002B24D07B681D
:101C34001B6C786898471FE07B689B6C002B1BD05B
:101C44007B689B6C7868984716E07B681B681B6808
:101C540003F48073002B07D17B681B681A687B68C8
:101C64001B6822F008021A607B681B6C002B03D0EF
:101C74007B681B6C786898477B68DB6D20229A40F0
:101C8400FB681340002B00F08F807B681B681B6887
:101C940003F01003002B00F087807B68DB6D2022AB
:101CA4009A403B699A607B6893F83530DBB2052B28
:101CB40036D17B681B681A687B681B6822F01602A1
:101CC4001A607B681B685A697B681B6822F0800273
:101CD4005A617B681B6C002B03D17B689B6C002BC7
:101CE40007D07B681B681A687B681B6822F00802AF
:101CF4001A607B68DB6D3F229A403B699A607B687F
:101D0400012283F835207B68002283F834207B6825
:101D14001B6D002B7ED07B681B6D7868984779E03B
:101D24007B681B681B6803F48023002B1DD07B6831
:101D34001B681B6803F40023002B0DD17B685B6CCC
:101D4400002B31D07B685B6C786898472CE000BF2F
:101D540004000020B5814E1B7B68DB6B002B23D075
:101D64007B68DB6B786898471EE07B681B681B68A0
:101D740003F48073002B0FD17B681B681A687B689F
:101D84001B6822F010021A607B68012283F8352058
:101D94007B68002283F834207B68DB6B002B03D044
:101DA4007B68DB6B786898477B685B6D002B32D06F
:101DB4007B685B6D03F00103002B22D07B68052256
:101DC40083F835207B681B681A687B681B6822F0DF
:101DD40001021A60BB680133BB607A699A4207D377
:101DE4007B681B681B6803F00103002BF2D100E041
:101DF40000BF7B68012283F835207B68002283F8CA
:101E040034207B68DB6C002B05D07B68DB6C786846
:101E1400984700E000BF1837BD4680BD80B485B048
:101E240000AFF860B9607A603B60FB681B681A68B1
:101E3400FB681B6822F480221A60FB681B683A68FE
:101E44005A60FB689B68402B08D1FB681B687A6862
:101E54009A60FB681B68BA68DA6007E0FB681B6875
:101E6400BA689A60FB681B687A68DA6000BF143746
:101E7400BD465DF8047B704780B485B000AF7860E0
:101E84007B681B68DBB2103B144AA2FB03231B09CB
:101E9400FB60134AFB6813441B781A467B68DA65B7
:101EA400FB68032B09D97B681B6823F47F7323F039
:101EB40003031A1D7B689A6507E07B681B6823F49B
:101EC4007F7323F003037A6893657B689B6D1846E0
:101ED4001437BD465DF8047B704700BFABAAAAAABD
:101EE400786F000880B485B000AF78600023FB737E
:101EF4007B689B6ABB607B689B69002B1FD1BB68B6
:101F0400032B56D801A252F823F000BF211F00086A
:101F1400331F0008211F0008B71F00087B68DB6A15
:101F240003F08073002B46D00123FB7343E07B68EE
:101F3400DB6AB3F1C07F40D10123FB733DE07B68D2
:101F44009B69B3F5005F21D1BB68032B37D801A28D
:101F540052F823F0691F00086F1F0008691F00086A
:101F6400811F00080123FB7330E07B68DB6A03F008
:101F74008073002B25D00123FB7322E07B68DB6A8E
:101F8400B3F1C07F1FD10123FB731CE0BB68022B9C
:101F940003D9BB68032B03D018E00123FB7315E0BE
:101FA4007B68DB6A03F08073002B0ED00123FB7384
:101FB4000BE000BF0AE000BF08E000BF06E000BF7E
:101FC40004E000BF02E000BF00E000BFFB7B184656
:101FD4001437BD465DF8047B704700BF80B489B0F8
:101FE40000AF7860396000237B6100233B610023EC
:101FF400BB610023FB6159E10122FB6902FA03F38F
:102004007B613B681B687A6913403B613A697B6971
:102014009A4240F048813B685B6803F00303012B5C
:1020240005D03B685B6803F00303022B30D17B6867
:102034009B68BB61FB695B00032202FA03F3DB4389
:10204400BA691340BB613B68DA68FB695B0002FA5A
:1020540003F3BA691343BB617B68BA699A607B680E
:102064005B68BB610122FB6902FA03F3DB43BA69D3
:102074001340BB613B685B681B0903F00102FB6909
:1020840002FA03F3BA691343BB617B68BA695A6005
:102094003B685B6803F00303032B17D07B68DB68A2
:1020A400BB61FB695B00032202FA03F3DB43BA69F9
:1020B4001340BB613B689A68FB695B0002FA03F357
:1020C400BA691343BB617B68BA69DA603B685B68D1
:1020D40003F00303022B23D1FB69DA087B6808327F
:1020E40053F82230BB61FB6903F007039B000F2206
:1020F40002FA03F3DB43BA691340BB613B681A6914
:10210400FB6903F007039B0002FA03F3BA69134364
:10211400BB61FB69DA087B680832B96943F82210AD
:102124007B681B68BB61FB695B00032202FA03F353
:10213400DB43BA691340BB613B685B6803F003028D
:10214400FB695B0002FA03F3BA691343BB617B6862
:10215400BA691A603B685B6803F44033002B00F0F3
:10216400A2800023FB60574B5B6C564A43F48043C8
:102174005364544B5B6C03F48043FB60FB68524A2A
:10218400FB699B08023352F82330BB61FB6903F0FF
:1021940003039B000F2202FA03F3DB43BA691340E3
:1021A400BB617B68494A934219D07B68484A934291
:1021B40013D07B68474A93420DD07B68464A9342CA
:1021C40007D07B68454A934201D1042308E00723E2
:1021D40006E0032304E0022302E0012300E00023DD
:1021E400FA6902F0030292009340BA691343BB6197
:1021F4003549FB699B080233BA6941F82320384BFF
:102204009B68BB613B69DB43BA691340BB613B68B4
:102214005B6803F48013002B03D0BA693B69134352
:10222400BB612F4ABB6993602D4BDB68BB613B6983
:10223400DB43BA691340BB613B685B6803F400137A
:10224400002B03D0BA693B691343BB61244ABB69C1
:10225400D360234B5B68BB613B69DB43BA691340C2
:10226400BB613B685B6803F40033002B03D0BA699D
:102274003B691343BB611A4ABB695360184B1B6823
:10228400BB613B69DB43BA691340BB613B685B6874
:1022940003F48033002B03D0BA693B691343BB6159
:1022A4000F4ABB691360FB690133FB61FB690F2BA8
:1022B4007FF6A2AE00BF00BF2437BD465DF8047BA5
:1022C400704700BF0038024000380140000002405F
:1022D4000004024000080240000C024000100240CA
:1022E400003C014080B483B000AF78600B467B8033
:1022F40013467B707B78002B03D07A887B689A61C5
:1023040003E07B881A047B689A6100BF0C37BD46E2
:102314005DF8047B7047000080B586B000AF78603C
:102324007B68002B01D1012367E27B681B6803F003
:102334000103002B75D0884B9B6803F00C03042B1E
:102344000CD0854B9B6803F00C03082B12D1824BF5
:102354005B6803F48003B3F5800F0BD17E4B1B68DD
:1023640003F40033002B5BD07B685B68002B57D1F0
:10237400012342E27B685B68B3F5803F06D1764B6C
:102384001B68754A43F4803313601DE07B685B6807
:10239400B3F5A02F0CD1704B1B686F4A43F4802314
:1023A40013606D4B1B686C4A43F4803313600BE07D
:1023B400694B1B68684A23F480331360664B1B68BF
:1023C400654A23F4802313607B685B68002B13D079
:1023D400FFF752F9386108E0FFF74EF902463B690E
:1023E400D31A642B01D9032307E25B4B1B6803F464
:1023F4000033002BF0D014E0FFF73EF9386108E019
:10240400FFF73AF902463B69D31A642B01D9032337
:10241400F3E1514B1B6803F40033002BF0D100E0CF
:1024240000BF7B681B6803F00203002B63D04A4B98
:102434009B6803F00C03002B0BD0474B9B6803F005
:102444000C03082B1CD1444B5B6803F48003002B62
:1024540016D1414B1B6803F00203002B05D07B68A7
:10246400DB68012B01D00123C7E13B4B1B6823F040
:10247400F8027B681B69DB00374913430B603AE0C1
:102484007B68DB68002B20D0344B01221A60FFF7F5
:10249400F3F8386108E0FFF7EFF802463B69D31A16
:1024A400022B01D90323A8E12B4B1B6803F0020381
:1024B400002BF0D0284B1B6823F0F8027B681B69C3
:1024C400DB00254913430B6015E0244B00221A60FE
:1024D400FFF7D2F8386108E0FFF7CEF802463B690F
:1024E400D31A022B01D9032387E11B4B1B6803F08A
:1024F4000203002BF0D17B681B6803F00803002B58
:1025040036D07B685B69002B16D0154B01221A600C
:10251400FFF7B2F8386108E0FFF7AEF802463B690E
:10252400D31A022B01D9032367E10B4B5B6F03F032
:102534000203002BF0D01BE0094B00221A60FFF7C6
:102544009BF838610EE0FFF797F802463B69D31A0F
:10255400022B07D9032350E1003802400000474210
:10256400800E4742884B5B6F03F00203002BEAD1D5
:102574007B681B6803F00403002B00F097800023A2
:10258400FB75814B1B6C03F08053002B0FD1002390
:10259400BB607D4B1B6C7C4A43F0805313647A4BC5
:1025A4001B6C03F08053BB60BB680123FB75774B46
:1025B4001B6803F48073002B18D1744B1B68734A97
:1025C40043F480731360FFF757F8386108E0FFF7AE
:1025D40053F802463B69D31A022B01D903230CE1B9
:1025E4006A4B1B6803F48073002BF0D07B689B68F4
:1025F400012B06D1644B1B6F634A43F0010313673D
:102604001CE07B689B68052B0CD15F4B1B6F5E4AFB
:1026140043F0040313675C4B1B6F5B4A43F00103F5
:1026240013670BE0584B1B6F574A23F001031367E2
:10263400554B1B6F544A23F0040313677B689B6854
:10264400002B15D0FFF718F838610AE0FFF714F8EB
:1026540002463B69D31A41F28832934201D90323DB
:10266400CBE0494B1B6F03F00203002BEED014E0C8
:10267400FFF702F838610AE0FEF7FEFF02463B6905
:10268400D31A41F28832934201D90323B5E03E4B79
:102694001B6F03F00203002BEED1FB7D012B05D150
:1026A400394B1B6C384A23F0805313647B689B6955
:1026B400002B00F0A180344B9B6803F00C03082B23
:1026C4005CD07B689B69022B41D1314B00221A609C
:1026D400FEF7D2FF386108E0FEF7CEFF02463B6901
:1026E400D31A022B01D9032387E0274B1B6803F07D
:1026F4000073002BF0D17B68DA697B681B6A1A438C
:102704007B685B6A9B011A437B689B6A5B08013B9D
:102714001B041A437B68DB6A1B061B4913434B608B
:102724001B4B01221A60FEF7A7FF386108E0FEF791
:10273400A3FF02463B69D31A022B01D903235CE0B1
:10274400114B1B6803F00073002BF0D054E0104BC6
:1027540000221A60FEF790FF386108E0FEF78CFF54
:1027640002463B69D31A022B01D9032345E0064BE9
:102774001B6803F00073002BF0D13DE07B689B697C
:10278400012B07D1012338E00038024000700040DB
:10279400600047421B4B5B68FB607B689B69012BB5
:1027A40028D0FB6803F480027B68DB699A4221D15C
:1027B400FB6803F03F027B681B6A9A421AD1FA68ED
:1027C40047F6C07313407A68526A9201934211D15A
:1027D400FB6803F440327B689B6A5B08013B1B0483
:1027E4009A4207D1FB6803F070627B68DB6A1B06C0
:1027F4009A4201D0012300E0002318461837BD4651
:1028040080BD00BF0038024080B584B000AF78605E
:1028140039607B68002B01D10123CCE0684B1B6835
:1028240003F007033A689A420CD9654B3A68D2B26E
:102834001A70634B1B6803F007033A689A4201D08D
:102844000123B8E07B681B6803F00203002B20D04F
:102854007B681B6803F00403002B05D0594B9B686D
:10286400584A43F4E05393607B681B6803F0080301
:10287400002B05D0534B9B68524A43F4604393604A
:10288400504B9B6823F0F0027B689B684D491343CF
:102894008B607B681B6803F00103002B44D07B68CA
:1028A4005B68012B07D1474B1B6803F40033002BF3
:1028B40019D101237FE07B685B68022B03D07B681E
:1028C4005B68032B07D13F4B1B6803F00073002B9D
:1028D40009D101236FE03B4B1B6803F00203002B7B
:1028E40001D1012367E0374B9B6823F003027B6827
:1028F4005B68344913438B60FEF7BEFEF8600AE060
:10290400FEF7BAFE0246FB68D31A41F288329342BC
:1029140001D903234FE02B4B9B6803F00C027B6827
:102924005B689B009A42EBD1254B1B6803F00703BD
:102934003A689A420CD2224B3A68D2B21A70204BAF
:102944001B6803F007033A689A4201D0012332E07E
:102954007B681B6803F00403002B08D0194B9B68A9
:1029640023F4E0527B68DB68164913438B607B6871
:102974001B6803F00803002B09D0124B9B6823F457
:1029840060427B681B69DB000E4913438B6000F0D7
:1029940021F802460B4B9B681B0903F00F030A49FD
:1029A400CB5C22FA03F3094A1360094B1B681846EF
:1029B400FEF71EFE002318461037BD4680BD00BF3B
:1029C400003C024000380240686F00080400002008
:1029D400080000202DE9B04F90B000AF00237B63C6
:1029E4000023FB6300233B630023BB63594B9B68B9
:1029F40003F00C03082B0DD0082B00F2A180002B50
:102A040002D0042B03D09BE0534BBB639BE0534B9E
:102A1400BB6398E04F4B5B6803F03F037B634D4B14
:102A24005B6803F48003002B28D04A4B5B689B0946
:102A340000223B627A623B6AC3F308000021474BE1
:102A440003FB01F2002300FB03F31344434AA0FBFE
:102A54000212FA620A46BA62FA6A1344FB627B6B98
:102A64000022BB61FA61D7E90623D7E90A01FDF721
:102A7400AFFB02460B461346FB6353E0354B5B68E2
:102A84009B0900223B617A613B69C3F3080A4FF05A
:102A9400000B52465B464FF000004FF00001590115
:102AA40041EAD261500102460B46B2EB0A0863EBDD
:102AB4000B094FF000024FF000034FEA891343EA79
:102AC40098634FEA8812B2EB080463EB09054FF0F0
:102AD40000024FF00003EB0043EA5473E200144693
:102AE4001D4614EB0A033B6045EB0B037B604FF080
:102AF40000024FF00003D7E9004529468B02214626
:102B040043EA915321468A02104619467B6B002200
:102B1400BB60FA60D7E90223FDF75AFB02460B4675
:102B24001346FB630B4B5B681B0C03F0030301337D
:102B34005B003B63FA6B3B6BB2FBF3F3BB6302E0FA
:102B4400054BBB6300BFBB6B18464037BD46BDE8B1
:102B5400B08F00BF003802400024F40040787D01AB
:102B640080B582B000AF78607B68002B01D101236F
:102B74007BE07B685B6A002B08D17B685B68B3F5FC
:102B8400827F09D07B680022DA6105E07B6800223D
:102B94001A617B6800225A617B6800229A627B6812
:102BA40093F85130DBB2002B06D17B68002283F806
:102BB40050207868FEF70AFC7B68022283F85120D3
:102BC4007B681B681A687B681B6822F040021A60E5
:102BD4007B685B6803F482727B689B6803F404433C
:102BE4001A437B68DB6803F400631A437B681B6940
:102BF40003F002031A437B685B6903F001031A4381
:102C04007B689B6903F400731A437B68DB6903F0F8
:102C140038031A437B681B6A03F0800342EA03010A
:102C24007B689B6A03F400527B681B680A431A6042
:102C34007B689B691B0C03F004017B685B6A03F0EF
:102C440010027B681B680A435A607B681B68DA6958
:102C54007B681B6822F40062DA617B6800225A6593
:102C64007B68012283F85120002318460837BD46AB
:102C740080BD80B588B000AFF860B9603B60134692
:102C8400FB80FEF7F9FCF861FB887B83FB6893F813
:102C94005130DBB2012B01D002232AE1BB68002BA7
:102CA40002D0FB88002B01D1012322E1FB6893F8B9
:102CB4005030012B01D102231BE1FB68012283F870
:102CC4005020FB68032283F85120FB6800225A65D8
:102CD400FB68BA681A63FB68FA889A86FB68FA8804
:102CE400DA86FB6800229A63FB6800229A87FB68F5
:102CF4000022DA87FB6800225A64FB6800221A6407
:102D0400FB689B68B3F5004F0FD1FB681B681A681A
:102D1400FB681B6822F040021A60FB681B681A6893
:102D2400FB681B6842F480421A60FB681B681B68DE
:102D340003F04003402B07D0FB681B681A68FB684C
:102D44001B6842F040021A60FB68DB68B3F5006F51
:102D540052D1FB685B68002B02D07B8B012B45D1E1
:102D6400FB681B6B1A88FB681B68DA60FB681B6BCB
:102D74009A1CFB681A63FB68DB8E9BB2013B9AB218
:102D8400FB68DA8632E0FB681B689B6803F0020389
:102D9400022B12D1FB681B6B1A88FB681B68DA6074
:102DA400FB681B6B9A1CFB681A63FB68DB8E9BB287
:102DB400013B9AB2FB68DA8618E0FEF75DFC024636
:102DC400FB69D31A3A689A4203D83B68B3F1FF3FD0
:102DD40002D13B68002B09D1FB68012283F8512002
:102DE400FB68002283F85020032382E0FB68DB8E1B
:102DF4009BB2002BC7D153E0FB685B68002B02D069
:102E04007B8B012B47D1FB681A6BFB681B680C3367
:102E140012781A70FB681B6B5A1CFB681A63FB68F8
:102E2400DB8E9BB2013B9AB2FB68DA8633E0FB6827
:102E34001B689B6803F00203022B13D1FB681A6B17
:102E4400FB681B680C3312781A70FB681B6B5A1CE6
:102E5400FB681A63FB68DB8E9BB2013B9AB2FB688A
:102E6400DA8618E0FEF708FC0246FB69D31A3A68D2
:102E74009A4203D83B68B3F1FF3F02D13B68002B71
:102E840009D1FB68012283F85120FB68002283F8F2
:102E9400502003232DE0FB68DB8E9BB2002BC6D1B0
:102EA400FA693968F86800F0F9F90346002B02D092
:102EB400FB6820225A65FB689B68002B0AD100231B
:102EC4007B61FB681B68DB687B61FB681B689B6834
:102ED4007B617B69FB68012283F85120FB68002237
:102EE40083F85020FB685B6D002B01D0012300E0C8
:102EF400002318462037BD4680BD000080B584B04D
:102F040000AFF860B9601346FB80FB6893F851305A
:102F1400DBB2012B01D0022397E0BB68002B02D067
:102F2400FB88002B01D101238FE0FB6893F850301C
:102F3400012B01D1022388E0FB68012283F8502091
:102F4400FB68032283F85120FB6800225A65FB6862
:102F5400BA681A63FB68FA889A86FB68FA88DA8684
:102F6400FB6800229A63FB6800225A64FB68002213
:102F74001A64FB6800229A87FB680022DA87FB68E0
:102F84009B68B3F5004F0FD1FB681B681A68FB6898
:102F94001B6822F040021A60FB681B681A68FB6811
:102FA4001B6842F480421A60FB689B6C294A1A64CD
:102FB400FB689B6C284ADA63FB689B6C274ADA64DB
:102FC400FB689B6C00221A65FB68986CFB681B6BA2
:102FD4001946FB681B680C331A46FB68DB8E9BB2F0
:102FE400FEF73AFD0346002B0BD0FB685B6D43F004
:102FF4001002FB685A65FB68002283F85020012305
:1030040023E0FB681B681B6803F04003402B07D0D8
:10301400FB681B681A68FB681B6842F040021A6070
:10302400FB68002283F85020FB681B685A68FB6821
:103034001B6842F020025A60FB681B685A68FB68F0
:103044001B6842F002025A60002318461037BD463E
:1030540080BD00BF353100088D30000851310008B3
:1030640080B483B000AF786000BF0C37BD465DF814
:10307400047B704780B483B000AF786000BF0C3726
:10308400BD465DF8047B704780B586B000AF7860BC
:103094007B689B6B7B61FEF7EFFA38617B681B688A
:1030A4001B6803F48073B3F5807F3BD07B691B6896
:1030B4005A687B691B6822F020025A607B691B688E
:1030C4005A687B691B6822F002025A603A696421DB
:1030D400786900F0E3F80346002B05D07B695B6D4B
:1030E40043F020027B695A657B699B68002B0AD1F7
:1030F4000023FB607B691B68DB68FB607B691B68E2
:103104009B68FB60FB687B690022DA867B6901228D
:1031140083F851207B695B6D002B03D07869FFF73E
:10312400A9FF02E07869FDF7A9FB1837BD4680BD09
:1031340080B584B000AF78607B689B6BFB60F868F7
:10314400FFF78EFF00BF1037BD4680BD80B584B049
:1031540000AF78607B689B6BFB60FB681B685A68F8
:10316400FB681B6822F003025A60FB685B6D43F046
:103174001002FB685A65FB68012283F85120F86845
:10318400FFF778FF00BF1037BD4680BD80B588B01B
:1031940000AFF860B9603B601346FB71FEF76CFA50
:1031A4000246BB6A9B1A3A681344FB61FEF764FA51
:1031B400B861394B1B685B011B0DFA6902FB03F311
:1031C4007B6155E03B68B3F1FF3F51D0FEF754FA01
:1031D4000246BB69D31AFA699A4202D9FB69002BE9
:1031E4003DD1FB681B685A68FB681B6822F0E0024B
:1031F4005A60FB685B68B3F5827F11D1FB689B68FA
:10320400B3F5004F04D0FB689B68B3F5806F07D11A
:10321400FB681B681A68FB681B6822F040021A608E
:10322400FB689B6AB3F5005F0FD1FB681B681A68E3
:10323400FB681B6822F400521A60FB681B681A685A
:10324400FB681B6842F400521A60FB68012283F891
:103254005120FB68002283F85020032318E07B6987
:10326400002B02D10023FB6102E07B69013B7B61FF
:10327400FB681B689A68BB681340BA689A420CBF23
:1032840001230023DBB21A46FB799A429AD1002328
:1032940018462037BD4680BD0400002080B588B0A4
:1032A40002AFF860B9607A607B680093BB68012262
:1032B4000221F868FFF76AFF0346002B07D0FB687A
:1032C4005B6D43F02002FB685A65032332E01B4B1D
:1032D4001B681B4AA2FB03235B0D4FF47A7202FBAB
:1032E40003F37B61FB685B68B3F5827F12D17B6873
:1032F4000093BB6800228021F868FFF747FF03466C
:10330400002B16D0FB685B6D43F02002FB685A6506
:1033140003230FE07B69002B0AD07B69013B7B61AF
:10332400FB681B689B6803F08003802BF2D000E0ED
:1033340000BF002318461837BD4680BD0400002096
:10334400819F5E1602440346934200D1704703F8FE
:10335400011BF9E770B50D4D0D4C641BA41000263C
:10336400A64209D10B4D0C4C00F018F8641BA410B4
:103374000026A64205D170BD55F8043B9847013696
:10338400EEE755F8043B98470136F2E7886F0008EA
:10339400886F0008886F00088C6F0008F8B500BFBC
:1033A400F8BC08BC9E467047F8B500BFF8BC08BC22
:0433B4009E4670477A
:1033B800414D4552203100003130302500000000D9
:1033C80053544F502D5741544348000030303A3041
:1033D80030000000190C1002070000000000000077
:1033E80000000000000000000000000000000000D5
:1033F80000020000FE0B00000000000000000000BA
:10340800000000000000000000000400001E000092
:10341800001E000000000000000000000000000086
:10342800000000081001100FF0011E01100FF0013C
:103438001E0110010000000000000000061C06220A
:10344800084208FF1F42088C070000000000000027
:1034580000000000000B00003C00420042083C064F
:10346800800170008C0742084008800700000900AE
:10347800008007DC086208A2081C07000780090012
:10348800080000000000000200001E00000000000C
:103498000000000000000000000000000000000024
:1034A800040000F00F0C380240000000000000008B
:1034B8000000000000000000000302400C38F00F7C
:1034C80000000000000000000000000000000000F4
:1034D800000005040034000E003400040000000061
:1034E800000000000000000000000007400040004D
:1034F8004000F803400040004000000000000000C9
:103508000000000002002000180000000000000079
:10351800000000000000000000000000000400019E
:103528000001000100010000000000000000000090
:103538000000000000000200000008000000000079
:10354800000000000000000000000000000000046F
:10355800000C800370000E00000000000000000056
:10356800000000000000000006F80304040208023E
:10357800080404F803000000000000000000000038
:103588000004000010000800FE0F0000000000000A
:1035980000000000000000000000060C0C020A02F7
:1035A80009820844083808000000000000000000F4
:1035B800000000060C06020842084208A40418038A
:1035C800000000000000000000000000068001402C
:1035D8000130010C01FE0F00010000000000000096
:1035E80000000000000670064E0822082208420467
:1035F800820300000000000000000000000006F840
:103608000344042208220842048C0300000000003E
:1036180000000000000000060200020EC201320095
:103628000A00060000000000000000000000000082
:10363800061803A40442084208A404180300000062
:103648000000000000000000000638064408820858
:1036580082084404F8030000000000000000000095
:103668000000020000100800000000000000000038
:1036780000000000000000000000000200201018F8
:103688000000000000000000000000000000000032
:10369800000000000700004000A000A0001001107A
:1036A8000108020000000000000000000007000000
:1036B800200120012001200120012001000000003C
:1036C800000000000000070000080210011001A01F
:1036D80000A00040000000000000000000000006FC
:1036E8000C000200020B820042003C0000000000B7
:1036F80000000000000000000C0000E0071008E8CF
:10370800171428124812442247F24804280828F0BF
:10371800170900080007E0009C0082009C00E000F8
:1037280000070008000000000000080000FE0F422B
:10373800084208420842084208BC0700000000008E
:10374800000000080000F803040402080208020848
:10375800040418030000000000000000080000FE38
:103768000F02080208020802080404F80300000017
:103778000000000000080000FE0F4208420842084E
:10378800420842084208000000000000000007004C
:1037980000FE0F420042004200420002000000000A
:1037A80000000000000000090000F80304040208FB
:1037B80002088208820884089807000000000000B8
:1037C800080000FE0F40004000400040004000FE9E
:1037D8000F0000000000000000020000FE0F0000C3
:1037E80000000000000000000000000000000000D1
:1037F80000000600000007000800080008FE070097
:103808000000000000000000000000080000FE0F9B
:1038180040002000D0000801040602080000000053
:1038280000000000070000FE0F0008000800080064
:10383800080008000000000000000000000A000066
:10384800FE0F060078008003000C80037800060055
:10385800FE0F00000000080000FE0F0C003000C042
:103868000000010006FE0F00000000000000000933
:103878000000F8030404020802080208020804040D
:10388800F803000000000000080000FE0F4200429C
:10389800004200420042003C00000000000000001E
:1038A80000090000F803040402080208020A0204DE
:1038B8000406F81B000000000000090000FE0F428B
:1038C8000042004200C200C2013C0600080000009D
:1038D80000000008000018032404420842084208B7
:1038E8008404180300000000000000000702000222
:1038F800000200FE0F0200020002000000000000AB
:103908000000000000080000FE0300040008000892
:1039180000080004FE030000000000000000090287
:10392800001C00E000000700080007E0001C00027F
:10393800000000000000000B1E00E003000CC003A4
:103948003C0002003C00C003000CE0031E00000025
:1039580008020804041803E000A000180304040285
:103968000800000000000000000902000400180020
:103978006000800F600018000400020000000000D2
:10398800000007020C020A8209420832080A0806E7
:103998000800000000000000000000030000FE7F97
:1039A80002400000000000000000000000000000CD
:1039B8000000000004060078008003000C000000EE
:1039C80000000000000000000000000000030000EC
:1039D8000240FE7F00000000000000000000000020
:1039E80000000000000005400038000600380040D4
:1039F80000000000000000000000000000000007B8
:103A080000200020002000200020002000200000CE
:103A18000000000000000000030000020004000095
:103A2800000000000000000000000000000000008E
:103A380000060000600610091009A004C00F00006D
:103A480000000000000000000000070000FE0F203A
:103A580004100810082004C0030000000000000043
:103A6800000000060000C0032004100810086006CB
:103A7800000000000000000000000000070000C077
:103A8800032004100810082004FE0F0000000000A6
:103A98000000000000070000C003A0049008900880
:103AA800A004C00200000000000000000000031095
:103AB80000FE0F12000000000000000000000000DF
:103AC80000000000000000070000C0332044104838
:103AD80010482024F01F0000000000000000000033
:103AE800060000FE0F200010001000E00F0000008C
:103AF800000000000000000000020000F20F0000BB
:103B080000000000000000000000000000000000AD
:103B18000000020040F27F000000000000000000EA
:103B28000000000000000000000000060000FE0F7A
:103B38008000C0002003100C0000000000000000FE
:103B480000000000020000FE0F000000000000005E
:103B5800000000000000000000000000000A000053
:103B6800F00F200010001000E00F300010001000CF
:103B7800E00F00000000060000F00F200010001009
:103B880000E00F0000000000000000000000000737
:103B98000000C0032004100810082004C00300001F
:103BA8000000000000000000070000F07F20041063
:103BB8000810082004C003000000000000000000F6
:103BC80000070000C0032004100810082004F07F3C
:103BD80000000000000000000000040000F00F20BA
:103BE80000100000000000000000000000000000BD
:103BF80000000006000060069008900810092006E2
:103C0800000000000000000000000000031000FE9B
:103C18000F10080000000000000000000000000075
:103C28000000000000060000F0070008000800047B
:103C3800F00F000000000000000000000000071066
:103C480000E000000700080007E000100000000086
:103C580000000000000000093000C003000CC00391
:103C68003000C003000CC00330000000000000005A
:103C780006000010086006800160061008000000B9
:103C8800000000000000000000071000E0400047AE
:103C980000380007E00010000000000000000000ED
:103CA8000000060000100C100A90095008300800A7
:103CB8000000000000000000000000030001FE7E7C
:103CC80002400000000000000000000000000000AA
:103CD80000000000020000FEFF00000000000000DD
:103CE8000000000000000000000000000003024087
:103CF800FE7E00010000000000000000000000003F
:103D08000000000000000740002000200060004084
:103D180000400060000000000000000000000004F7
:103D2800FF0F01080108FF0F00000000000000005D
:103D380000000000000000002E0F13030800000020
:103D4800000000000000000000000000000000006B
:103D5800000000000000000000000000000000005B
:103D68000000000000000000000002000000FE4704
:103D7800000000000000000000000000000000003B
:103D8800000000000000000000000000000000002B
:103D98000000000000000000040000003E000000D9
:103DA80000003E00000000000000000000000000CD
:103DB80000000000000000000000000000000000FB
:103DC80000000000000008200400207400F00F002C
:103DD8002E0400207400F00F002E040020040000C0
:103DE80000000000000000000000000000000000CB
:103DF8000000000008000000781800C6200082407B
:103E080000FFFF010241000623000C1E0000000015
:103E1800000000000000000000000000000000009A
:103E280000000B0000007C00008200008240007C43
:103E38003800000700E00000183E0006410000417D
:103E480000003E000000000000000000000000002C
:103E58000B000000001F00BC2100C64000C241004A
:103E68004242006664003C3C00002E0000630000F3
:103E780040000000000000000000000000000200F8
:103E880000003E00000000000000000000000000EC
:103E9800000000000000000000000000000000001A
:103EA8000000000000000000000000000500000005
:103EB800000000E07F001CC00302000400000000B6
:103EC80000000000000000000000000000000000EA
:103ED80000000000000000000000030200041CC0F5
:103EE80003E07F0000000000000000000000000068
:103EF80000000000000000000000000000000000BA
:103F08000000000000000000050400003400000E5E
:103F18000000340000040000000000000000000061
:103F28000000000000000000000000000000000089
:103F38000000000000000A0000000002000002006B
:103F4800000200000200C01F000002000002000082
:103F58000200000200000000000000000000000055
:103F6800000000000200000200C001000000000084
:103F78000000000000000000000000000000000039
:103F88000000000000000000000000000000000029
:103F98000000040004000004000004000004000005
:103FA8000000000000000000000000000000000009
:103FB80000000000000000000000000000000000F9
:103FC80002000000004000000000000000000000A7
:103FD80000000000000000000000000000000000D9
:103FE80000000000000000000000000000000400C5
:103FF8004000003E00E001001E000000000000003C
:1040080000000000000000000000000000000000A8
:1040180000000000000000000000000008F80F0089
:104028000630000360000140000140000360000604
:104038003000F80F00000000000000000000000041
:104048000000000000000000000005000000100053
:1040580000080000040000FF7F00000000000000CE
:104068000000000000000000000000000000000048
:104078000000000000000000080C60000250000171
:104088004800014400014200814100C240003C4018
:104098000000000000000000000000000000000018
:1040A8000000000000000804180002200001400081
:1040B800814000814000814000C221003C1F000077
:1040C80000000000000000000000000000000000E8
:1040D80000000000080006008005004004003004CD
:1040E800000C0400FF7F0000040000040000000032
:1040F80000000000000000000000000000000000B8
:10410800000008F018006F20002140002140002125
:104118004000616000C13000810F00000000000015
:104128000000000000000000000000000000000087
:1041380008F80F008630004260004140004140000E
:10414800414000822000041F000000000000000021
:10415800000000000000000000000000000008014E
:104168000000010000017800010700E100003900AB
:10417800000D000003000000000000000000000027
:10418800000000000000000000000000083C1F00C4
:10419800C22100814000814000814000814000C26E
:1041A80021007C1F0000000000000000000000004B
:1041B80000000000000000000000087C10008620BD
:1041C800000341000141000141000121008638003F
:1041D800F8070000000000000000000000000000D8
:1041E8000000000000000000020000002040000065
:1041F80000000000000000000000000000000000B7
:1042080000000000000000000000000000000000A6
:104218000000000000000200000220C001000000B1
:104228000000000000000000000000000000000086
:104238000000000000000000000000000000000076
:104248000000000008000000000100800200800259
:1042580000400400200800200800101000000000A2
:104268000000000000000000000000000000000046
:104278000000080000004004004004004004004022
:104288000400400400400400400400000000000056
:104298000000000000000000000000000000000016
:1042A800080000001010002008002008004004004A
:1042B80080020080020000010000000000000000F1
:1042C80000000000000000000000000000000718C7
:1042D8000000040000020000025C000203008401E8
:1042E800007800000000000000000000000000004E
:1042F8000000000000000000000000000F000000A7
:10430800803F0060C0001800010C1F02C4600262F8
:104318004004224004222004423804E247040440B6
:10432800020C2002381801E087000B00400000381A
:1043380000000700E002001C02000202001C02004C
:10434800E002000007000038000040000000000004
:10435800000000000000000009000000FE7F00824D
:104368004000824000824000824000824000C42118
:1043780000781F000000000000000000000000009E
:104388000000000000000A000000E0070018180004
:1043980004200002400002400002400002400004E5
:1043A8002000181C000000000000000000000000B1
:1043B800000000000A000000FE7F000240000240EA
:1043C800000240000240000240000420000C1800D7
:1043D800F00F0000000000000000000000000000D6
:1043E800000009000000FE7F008240008240008239
:1043F800400082400082400082400082400000006D
:1044080000000000000000000000000000000000A4
:1044180009000000FE7F0082000082000082000088
:1044280082000082000082000002000000000000FC
:1044380000000000000000000000000000000B0069
:104448000000E007001818000420000240000240A5
:1044580000024100024100026100042100183F00EF
:104468000000000000000000000000000A0000003A
:10447800FE7F008000008000008000008000008037
:104488000000800000800000FE7F000000000000A7
:104498000000000000000000000002000000FE7F95
:1044A8000000000000000000000000000000000004
:1044B80000000000000000000000000000000000F4
:1044C80000000000000000000700000000380000A5
:1044D8004000004000004000004000FE3F00000097
:1044E80000000000000000000000000000000000C4
:1044F8000000000000000A000000FE7F000003002A
:10450800800000C000002001001006000818000606
:104518002000004000000000000000000000000033
:104528000000000008000000FE7F0000400000407E
:104538000000400000400000400000400000000073
:104548000000000000000000000000000000000063
:1045580000000C000000FE7F00060000380000C0CC
:104568000300001C00006000001C008003007000B5
:10457800000E0000FE7F00000000000000000000A8
:104588000A000000FE7F0004000018000060000020
:10459800800100000600001800002000FE7F0000D7
:1045A80000000000000000000000000000000B00F8
:1045B8000000E00700181800042000024000024034
:1045C80000024000024000042000181800E0070024
:1045D80000000000000000000000000009000000CA
:1045E800FE7F000201000201000201000201000238
:1045F80001008600007800000000000000000000B4
:10460800000000000000000000000B000000E007B0
:104618000018180004200002400002400002580060
:10462800027000042000187800E0CF0000000000AD
:1046380000000000000000000B000000FE7F0002E8
:10464800010002010002010002010002010002074C
:1046580000860C00783000004000000000000000D8
:104668000000000000000900000038180044200085
:1046780082400082400002410002410004220018EA
:104688001C00000000000000000000000000000006
:104698000000000009020000020000020000020001
:1046A80000FE7F000200000200000200000200007D
:1046B80000000000000000000000000000000000F2
:1046C80000000A000000FE1F00002000004000005B
:1046D8004000004000004000004000002000FE1F95
:1046E80000000000000000000000000000000000C2
:1046F8000B0200001C0000E000000007000038006A
:10470800004000003800000700E000001C00000224
:1047180000000000000000000000000000000E0083
:1047280000003E0000C01F00006000001C00C00325
:1047380000380000060000380000C00300001E001A
:10474800006000C01F003E00000000000A02400098
:10475800042000181800200400C00300C003002033
:1047680004001818000420000240000000000000A7
:1047780000000000000000000000090200000C001A
:1047880000300000C00000007F00C00000300000C2
:104798000C00000200000000000000000000000003
:1047A8000000000000000000090260000250000242
:1047B8004C000242008241004240003240000A4060
:1047C800000640000000000000000000000000009B
:1047D80000000000000004000000FEFF07020004C3
:1047E80002000400000000000000000000000000BB
:1047F80000000000000000000000000000000000B1
:104808000000000004060000F80000001F0000601F
:104818000000000000000000000000000000000090
:104828000000000000000000000000000000000080
:10483800000003020004020004FEFF07000000005D
:104848000000000000000000000000000000000060
:104858000000000000000000000000000000000050
:104868000780000060000018000006000018000023
:104878006000008000000000000000000000000050
:104888000000000000000000000000000000090017
:10489800000100000100000100000100000100000B
:1048A80001000001000001000001000000000000FC
:1048B80000000000000000000000000003000000ED
:1048C8000200000C000000000000000000000000D2
:1048D80000000000000000000000000000000000D0
:1048E8000000000000000000000008000000803CFC
:1048F8000040660020420020420020420020310093
:10490800C07F000000000000000000000000000060
:10491800000000000000000008000000FE7F0040CA
:104928002000204000204000204000402000801F40
:10493800000000000000000000000000000000006F
:1049480000000000000007801F00402000204000F9
:104958002040002040006020008018000000000077
:10496800000000000000000000000000000000003F
:104978000000000008000000801F004020002040C8
:1049880000204000204000402000FE7F0000000082
:10499800000000000000000000000000000000000F
:1049A800000008000000801F004022002042002074
:1049B8004200204200402200801300000000000056
:1049C80000000000000000000000000000000000DF
:1049D80005200000FC7F00220000220000020000E9
:1049E80000000000000000000000000000000000BF
:1049F80000000000000000000000000000000800A7
:104A08000000801F03402004204004204004204070
:104A180004402002E0FF0100000000000000000048
:104A28000000000000000000000000000800000076
:104A3800FE7F0040000020000020000020000060F1
:104A48000000C07F0000000000000000000000001F
:104A58000000000000000000000002000000E27FEB
:104A6800000000000000000000000000000000003E
:104A7800000000000000000000000000000000002E
:104A8800000000000000000002000004E2FF070030
:104A9800000000000000000000000000000000000E
:104AA80000000000000000000000000000000000FE
:104AB80000000000000007000000FE7F0000020068
:104AC800000300800400401800206000000000007F
:104AD80000000000000000000000000000000000CE
:104AE8000000000002000000FE7F0000000000003F
:104AF80000000000000000000000000000000000AE
:104B0800000000000000000000000000000000009D
:104B180000000C000000E07F0040000020000020A2
:104B28000000200000C07F0040000020000020009E
:104B380000200000C07F000000000000000000000E
:104B480008000000E07F0040000020000020000076
:104B5800200000600000C07F00000000000000008E
:104B68000000000000000000000000000000080035
:104B78000000801F0040200020400020400020400E
:104B880000402000801F000000000000000000001E
:104B98000000000000000000000000000800000005
:104BA800E0FF074020002040002040002040004057
:104BB8002000801F0000000000000000000000002E
:104BC8000000000000000000000008000000801F36
:104BD80000402000204000204000204000402000ED
:104BE800E0FF0700000000000000000000000000D7
:104BF800000000000000000005000000E07F004009
:104C0800000020000060000000000000000000001C
:104C1800000000000000000000000000000000008C
:104C280000000000000007000000C0310020420022
:104C3800204200204400204400C03800000000004A
:104C4800000000000000000000000000000000005C
:104C58000000000003200000FC7F0020400000004E
:104C6800000000000000000000000000000000003C
:104C7800000000000000000000000000000000002C
:104C8800000008000000E03F000060000040000055
:104C98004000004000002000E07F0000000000000D
:104CA80000000000000000000000000000000000FC
:104CB80007600000800300003C00004000003C004A
:104CC80080030060000000000000000000000000F9
:104CD80000000000000000000000000000000B6061
:104CE8000000800300001C00006000801F006000BE
:104CF80000801F00006000001C00800300600000AE
:104D08000000000000000000000000000720400034
:104D1800C03000000900000600000900C030002073
:104D2800400000000000000000000000000000003B
:104D3800000000000000000000000760000480037D
:104D480004003C0200C001003C0080030060000039
:104D5800000000000000000000000000000000004B
:104D68000000000000000000072060002050002024
:104D78004800204600204100A0400060400000009C
:104D8800000000000000000000000000000000001B
:104D980000000000000005000400000E00FCFB03FA
:104DA80002000402000400000000000000000000EF
:104DB80000000000000000000000000000000000EB
:104DC8000000000002000000FEFF070000000000D5
:104DD80000000000000000000000000000000000CB
:104DE80000000000000000000000000000000000BB
:104DF800000005020004020004FCFB03000E000092
:104E08000400000000000000000000000000000096
:104E1800000000000000000000000000000000008A
:104E280008000100800000800000800000000100F0
:104E380000010000010080010000000000000000E7
:104E4800000000000000000000000000000005FE57
:104E58003F00022000022000022000FE3F00000068
:104E6800000000000000000000000000000000003A
:104E78000000000000000000000000004108410898
:104E880041084108410841084108410841084108D2
:104E980041084108410841084108410841082000EB
:104EA80020004108410841084108410841084108DB
:104EB80041084108410841084108410841084108A2
:104EC800410861080000C318A210200041084108E9
:104ED8004108410841084108410841084108410882
:104EE800410841084108410861080000042159CEE1
:104EF80024210000410841084108410841084108AF
:104F08004108410841084108410841084108410851
:104F18000000A2109AD6FFFFA21020004108410805
:104F28004108410841084108410841084108410831
:104F38004108410861084108E31859CEFFFF5DEFB9
:104F4800C3182000410841084108410841084108A8
:104F5800410841084108410841084108410800004A
:104F6800EF7BFFFFFFFF7DEFE318200041084108BA
:104F780041084108410841084108410841084108E1
:104F88006108000004210C638E73FFFFFFFF7DEFB3
:104F9800E318200041084108410841084108410838
:104FA8004108410841084108200061089AD634A503
:104FB8002C63FFFFFFFF7DEFE31820004108410845
:104FC8004108410841084108410841084108410891
:104FD8008210D7BDFFFF92944D6BFFFFFFFF7DEF5F
:104FE800E3182000410841084108410841084108E8
:104FF800410841084108000055ADFFFFFFFFB2948A
:105008004D6BFFFFFFFF7DEFE318200041084108CB
:10501800410841084108410841082000A210242104
:1050280079CEFFFFFFFFD39C4D6BFFFFFFFF7DEFA6
:10503800E318200041084108410841084108410897
:1050480020002000F7BDEB5AD7BDFFFFFFFFD39C20
:105058004D6BFFFFFFFF7DEFE3182000410841087B
:105068004108410841082000200075ADFFFF494A6A
:10507800F7BDFFFFFFFFD39C4D6BFFFFFFFF7DEFE9
:10508800E318200041084108410841084108410847
:1050980055ADFFFFFFFF694AF7BDFFFFFFFFD39C38
:1050A8004D6BFFFFFFFF7DEFE3182000410841082B
:1050B800410841080000E739FFFFDFFFFFFF8A5280
:1050C800F7BDFFFFFFFFD39C4D6BFFFFFFFF7DEF99
:1050D800E31820004108410841082000EF7B694A95
:1050E800DFFFFFFFFFFF8A52F7BDFFFFFFFFD39CE3
:1050F8004D6BFFFFFFFF7DEFE31820004108200004
:10510800000014A53CE7E739DFFFDFFFDFFF694A4E
:10511800D7BDDFFFDFFFB2942C63DFFFDFFF7DEF3A
:10512800E31820004108610855ADFFFF3CE728421D
:10513800FFFFFFFFFFFFAA5259CEFFFFFFFF14A595
:105148008E73FFFFFFFFFFFFE318200020004529B3
:10515800CF7B6D6B0C6304218E738E73AE73452900
:10516800AA528E738E73284286318E736D6B4D6B87
:1051780082102000410820000000000000002000EC
:1051880000000000000020000000000000000000F7
:10519800000000000000000020004108000000009E
:1051A80000000000000000000000000000000000F7
:1051B80000000000000000000000000000000000E7
:1051C80000000000000000000000000000000000D7
:1051D80000000000000000000000000000000000C7
:1051E800000000000000000000000421D39CF39C94
:1051F800F39CF39CF39CF39CF39CF39CD39C14A525
:10520800284200002000000000000000000000000C
:105218000000000000000000000020000000000066
:105228000000000000002000E739E739E739E739D6
:10523800E739E739E739E739E7390842A2100000CA
:105248000000000000000000200000000000000036
:105258000000000020000000A210694A8A528A5209
:105268008A528A5228422842284228422842284202
:105278002842284228422842694A8A528A528A5237
:105288008A52452900004108000000000000000083
:1052980000008A52F7BD55AD14A534A534A534A530
:1052A80034A534A534A534A534A534A534A534A52E
:1052B80034A534A534A514A534A514A534A5F7BD83
:1052C800CF7B200000000000200000000842D7BD6E
:1052D8004529000000000000000000000000000058
:1052E80000000000000000000000000000000000B6
:1052F800000000000000000000006108F39CAE738D
:10530800000000000000200014A56529000020000E
:105318000000000000000000000000000000000085
:105328000000000000000000000000000000000075
:105338000000000020000000410896B5042100008C
:1053480000006529718C0000410800000000000081
:105358000000000000000000000000000000000045
:105368000000000000000000000000000000000035
:105378000000200000006D6B2C6300000000284234
:10538800AE730000200000000000000000000000D4
:105398000000000000000000000000000000000005
:1053A80000000000000000000000000000000000F5
:1053B80000002842CF7B000000002842AE730000A6
:1053C80020000000000000000000000000000000B5
:1053D80000000000000000000000000000000000C5
:1053E8000000000000000000000000000000E73995
:1053F800EF7B000000002842AE7300002000000090
:105408000000000000000000000000000000000094
:105418000000000000000000000000000000000084
:1054280000000000000000000000E739CF7B00000A
:1054380000002842AE7300002000000000000000B9
:105448000000000000000000000000000000000054
:105458000000000000000000000000000000000044
:10546800000000000000E739EF7B00000000284240
:10547800AE730000400800000000000000000000BB
:105488000000000000000000000000000000000014
:1054980000000000000000000000000000002000E4
:1054A8000000E739EF7B000000002842AE730000DF
:1054B80000000000000000000000000000000000E4
:1054C80000000000000000000000000000000000D4
:1054D800000000000000000000000000000007427B
:1054E800EF7B0000000028426E73E018257C836380
:1054F8008363836383638363836383638363836374
:1055080083638363836383638363836363636363A3
:105518008363435BE252225B8029C839EF7B00003A
:10552800000028422E6B2142EAF726CF05C726C77E
:1055380026C726C726C726C726C726C726C726C7FB
:1055480026C726C726C726C706C706C726C7A5BEB5
:10555800E3AD64BE415BA731EF7B00000000284249
:105568004E6BE139C9EFA6BE85BE85BE85BE85BE38
:1055780085BE85BE85BE85BE85BE85BE85BE85BE0B
:1055880085BE85BE85BE85BEA5BE24B6639D04AE18
:105598000053C739EF7B0000000028424D6BE1390A
:1055A800C9EFC6BEA5BEA5BEA5BEA5BEA5BEA5BE65
:1055B800A5BEA5BEA5BEA5BEA5BEA5BEA5BEA5BECB
:1055C800A5BEA5BEC5BE44B683A504B6005BC73953
:1055D800EF7B0000000028424D6BE139C9EFC6BEE1
:1055E800A5BEA5BEA5BEA5BEA5BEA5BEA5BEA5BE9B
:1055F800A5BEA5BEA5BEA5BEA5BEA5BEA5BEA5BE8B
:10560800C5BE44B683A504B6005BC739EF7B00006E
:10561800000028424E6BE139C9EFA6BEA5BEA5BE63
:10562800A5BEA5BEA5BEA5BEA5BEA5BEA5BEA5BE5A
:10563800A5BEA5BEA5BEA5BEA5BEA5BEA5BE24B6D3
:10564800839D04AE0053C731EF7B00000000284261
:105658004E6B213AE9F706CF06C706C706C706C745
:1056680006C706C706C706C706C706C706C706C7CA
:1056780006C706C706C705C726C785BEC3AD64BE2D
:10568800205BC831EF7B0000000028428E73600861
:105698002342E139E131E131E131E131E131E13117
:1056A800E131E131E131E131E131E131E131E13162
:1056B800E131E131E231C1318029A131A010E7396E
:1056C800CF7B000000002842AE73200082294121D0
:1056D80041214121412141214121412141214121B2
:1056E80041214121412141214121412141214121A2
:1056F80041212121001921216008E839CF7B0000D0
:10570800000028424E6B013AE9EFC6C6A5BEA5BE09
:10571800A5BEA5BEA5BEA5BEA5BEA5BEA5BEA5BE69
:10572800A5BEA5BEA5BEA5BEA5BEA5BEC5BE44B6A2
:1057380083A504B6005BC831EF7B00000000284257
:105748004D6BE139C9EFC6C6A5BEA5BEA5BEA5BEAF
:10575800A5BEA5BEA5BEA5BEA5BEA5BEA5BEA5BE29
:10576800A5BEA5BEA5BEA5BEC5BE45B683A504B645
:10577800005BC739EF7B0000000028424D6BE13920
:10578800C9EFC6BEA5BEA5BEA5BEA5BEA5BEA5BE83
:10579800A5BEA5BEA5BEA5BEA5BEA5BEA5BEA5BEE9
:1057A800A5BEA5BEC5BE44B683A504B6005BC73971
:1057B800EF7B0000000028424D6BE139C9EFC6BEFF
:1057C800A5BEA5BEA5BEA5BEA5BEA5BEA5BEA5BEB9
:1057D800A5BEA5BEA5BEA5BEA5BEA5BEA5BEA5BEA9
:1057E800C5BE44B683A504B6005BC739EF7B00008D
:1057F800000028424E6BE139C9E7A6BE85BEA5BEAA
:10580800A5BEA5BEA5BEA5BEA5BEA5BEA5BEA5BE78
:10581800A5BEA5BEA5BEA5BE85BE85BEA5BE24AE39
:10582800639D04AE0053C839EF7B00000000284296
:105838004E6B213AE9FF26CF26C726C726C726C7BB
:1058480026C726C726C726C726C726C726C726C7E8
:1058580026C726CF26CF26CF26CFA5BEE3AD64BE6A
:10586800405BC739EF7B0000000028426E6B2021A7
:10587800C694447C4374437C437C437C437C437C94
:10588800437C437C437C437C437C437C437C437C18
:1058980023742374437CE36B4263A26BC031C73922
:1058A800EF7B000000002842AE73000000000000FB
:1058B80000000000000000000000000000000000E0
:1058C80000000000000000000000000000000000D0
:1058D800000000000000000000000842EF7B00000C
:1058E800000028424E6B803168C6859D849D859D49
:1058F800859D859D859D859D859D859D859D859D90
:10590800859D859D859D859D859D859D859D2495E8
:10591800838403958042C839EF7B00000000284249
:105928002E6B013AE9F706C7E5C6E5C6E5C6E5C642
:10593800E5C6E5C6E5C6E5C6E5C6E5C6E5C6E5C607
:10594800E5C6E5C6E5C6E5C606C785BEC3A544B631
:10595800205BC831EF7B0000000028424D6BE13925
:10596800C9EFA6BEA5BEA5BEA5BEA5BEA5BEA5BEC1
:10597800A5BEA5BEA5BEA5BEA5BEA5BEA5BEA5BE07
:10598800A5BEA5BEA5BE44B663A504B60053C739D7
:10599800EF7B0000000028424D6BE139C9EFC6BE1D
:1059A800A5BEA5BEA5BEA5BEA5BEA5BEA5BEA5BED7
:1059B800A5BEA5BEA5BEA5BEA5BEA5BEA5BEA5BEC7
:1059C800C5BE44B683A504B6005BC739EF7B0000AB
:1059D800000028424E6BE139C9EFA6BEA5BEA5BEA0
:1059E800A5BEA5BEA5BEA5BEA5BEA5BEA5BEA5BE97
:1059F800A5BEA5BEA5BEA5BEA5BEA5BEA5BE44B6F0
:105A080083A504B60053A731EF7B000000002842AD
:105A18004E6B013AE9F7E6C6C5BEE5C6E5C6E5C67A
:105A2800E5C6E5C6E5C6E5C6E5C6E5C6E5C6E5C616
:105A3800E5C6E5C6E5C6C5C6E6C664B6A3A544B6CA
:105A4800205BA731EF7B0000000028424E6BA1319C
:105A580008D705AE05AE05AE05AE05AE05AE05AE7A
:105A680005AE05AE05AE05AE05AE05AE05AE05AE96
:105A780005AE05AE05AEA49DE394639DA04AC73963
:105A8800EF7B000000002842AE73000021002000D8
:105A980020002000200020002000200020002000FE
:105AA80020002000200020002000200020002000EE
:105AB800200020000000200000000842CF7B0000EA
:105AC800000028426E73E018457CA36BA363A36BA8
